{
  "contractName": "EverGrow",
  "abi": [
    {
      "inputs": [
        {
          "internalType": "address",
          "name": "_dexRouter",
          "type": "address"
        }
      ],
      "stateMutability": "nonpayable",
      "type": "constructor"
    },
    {
      "anonymous": false,
      "inputs": [
        {
          "indexed": true,
          "internalType": "address",
          "name": "owner",
          "type": "address"
        },
        {
          "indexed": true,
          "internalType": "address",
          "name": "spender",
          "type": "address"
        },
        {
          "indexed": false,
          "internalType": "uint256",
          "name": "value",
          "type": "uint256"
        }
      ],
      "name": "Approval",
      "type": "event"
    },
    {
      "anonymous": false,
      "inputs": [
        {
          "indexed": false,
          "internalType": "uint256",
          "name": "amountBNB",
          "type": "uint256"
        },
        {
          "indexed": false,
          "internalType": "uint256",
          "name": "amountBOG",
          "type": "uint256"
        }
      ],
      "name": "AutoLiquify",
      "type": "event"
    },
    {
      "anonymous": false,
      "inputs": [
        {
          "indexed": false,
          "internalType": "uint256",
          "name": "duration",
          "type": "uint256"
        }
      ],
      "name": "BuybackMultiplierActive",
      "type": "event"
    },
    {
      "anonymous": false,
      "inputs": [
        {
          "indexed": false,
          "internalType": "address",
          "name": "owner",
          "type": "address"
        }
      ],
      "name": "OwnershipTransferred",
      "type": "event"
    },
    {
      "anonymous": false,
      "inputs": [
        {
          "indexed": true,
          "internalType": "address",
          "name": "from",
          "type": "address"
        },
        {
          "indexed": true,
          "internalType": "address",
          "name": "to",
          "type": "address"
        },
        {
          "indexed": false,
          "internalType": "uint256",
          "name": "value",
          "type": "uint256"
        }
      ],
      "name": "Transfer",
      "type": "event"
    },
    {
      "inputs": [],
      "name": "MASK",
      "outputs": [
        {
          "internalType": "uint256",
          "name": "",
          "type": "uint256"
        }
      ],
      "stateMutability": "view",
      "type": "function"
    },
    {
      "inputs": [],
      "name": "WBNB",
      "outputs": [
        {
          "internalType": "address",
          "name": "",
          "type": "address"
        }
      ],
      "stateMutability": "view",
      "type": "function"
    },
    {
      "inputs": [],
      "name": "_maxTxAmount",
      "outputs": [
        {
          "internalType": "uint256",
          "name": "",
          "type": "uint256"
        }
      ],
      "stateMutability": "view",
      "type": "function"
    },
    {
      "inputs": [
        {
          "internalType": "address",
          "name": "adr",
          "type": "address"
        }
      ],
      "name": "authorize",
      "outputs": [],
      "stateMutability": "nonpayable",
      "type": "function"
    },
    {
      "inputs": [],
      "name": "autoBuybackEnabled",
      "outputs": [
        {
          "internalType": "bool",
          "name": "",
          "type": "bool"
        }
      ],
      "stateMutability": "view",
      "type": "function"
    },
    {
      "inputs": [],
      "name": "autoLiquidityReceiver",
      "outputs": [
        {
          "internalType": "address",
          "name": "",
          "type": "address"
        }
      ],
      "stateMutability": "view",
      "type": "function"
    },
    {
      "inputs": [],
      "name": "distributorAddress",
      "outputs": [
        {
          "internalType": "address",
          "name": "",
          "type": "address"
        }
      ],
      "stateMutability": "view",
      "type": "function"
    },
    {
      "inputs": [
        {
          "internalType": "address",
          "name": "adr",
          "type": "address"
        }
      ],
      "name": "isAuthorized",
      "outputs": [
        {
          "internalType": "bool",
          "name": "",
          "type": "bool"
        }
      ],
      "stateMutability": "view",
      "type": "function"
    },
    {
      "inputs": [
        {
          "internalType": "address",
          "name": "account",
          "type": "address"
        }
      ],
      "name": "isOwner",
      "outputs": [
        {
          "internalType": "bool",
          "name": "",
          "type": "bool"
        }
      ],
      "stateMutability": "view",
      "type": "function"
    },
    {
      "inputs": [],
      "name": "launchedAt",
      "outputs": [
        {
          "internalType": "uint256",
          "name": "",
          "type": "uint256"
        }
      ],
      "stateMutability": "view",
      "type": "function"
    },
    {
      "inputs": [],
      "name": "launchedAtTimestamp",
      "outputs": [
        {
          "internalType": "uint256",
          "name": "",
          "type": "uint256"
        }
      ],
      "stateMutability": "view",
      "type": "function"
    },
    {
      "inputs": [],
      "name": "marketingFeeReceiver",
      "outputs": [
        {
          "internalType": "address",
          "name": "",
          "type": "address"
        }
      ],
      "stateMutability": "view",
      "type": "function"
    },
    {
      "inputs": [],
      "name": "pair",
      "outputs": [
        {
          "internalType": "address",
          "name": "",
          "type": "address"
        }
      ],
      "stateMutability": "view",
      "type": "function"
    },
    {
      "inputs": [],
      "name": "router",
      "outputs": [
        {
          "internalType": "contract IDEXRouter",
          "name": "",
          "type": "address"
        }
      ],
      "stateMutability": "view",
      "type": "function"
    },
    {
      "inputs": [],
      "name": "swapEnabled",
      "outputs": [
        {
          "internalType": "bool",
          "name": "",
          "type": "bool"
        }
      ],
      "stateMutability": "view",
      "type": "function"
    },
    {
      "inputs": [],
      "name": "swapThreshold",
      "outputs": [
        {
          "internalType": "uint256",
          "name": "",
          "type": "uint256"
        }
      ],
      "stateMutability": "view",
      "type": "function"
    },
    {
      "inputs": [
        {
          "internalType": "address payable",
          "name": "adr",
          "type": "address"
        }
      ],
      "name": "transferOwnership",
      "outputs": [],
      "stateMutability": "nonpayable",
      "type": "function"
    },
    {
      "inputs": [
        {
          "internalType": "address",
          "name": "adr",
          "type": "address"
        }
      ],
      "name": "unauthorize",
      "outputs": [],
      "stateMutability": "nonpayable",
      "type": "function"
    },
    {
      "stateMutability": "payable",
      "type": "receive"
    },
    {
      "inputs": [],
      "name": "totalSupply",
      "outputs": [
        {
          "internalType": "uint256",
          "name": "",
          "type": "uint256"
        }
      ],
      "stateMutability": "view",
      "type": "function"
    },
    {
      "inputs": [],
      "name": "decimals",
      "outputs": [
        {
          "internalType": "uint8",
          "name": "",
          "type": "uint8"
        }
      ],
      "stateMutability": "pure",
      "type": "function"
    },
    {
      "inputs": [],
      "name": "symbol",
      "outputs": [
        {
          "internalType": "string",
          "name": "",
          "type": "string"
        }
      ],
      "stateMutability": "pure",
      "type": "function"
    },
    {
      "inputs": [],
      "name": "name",
      "outputs": [
        {
          "internalType": "string",
          "name": "",
          "type": "string"
        }
      ],
      "stateMutability": "pure",
      "type": "function"
    },
    {
      "inputs": [],
      "name": "getOwner",
      "outputs": [
        {
          "internalType": "address",
          "name": "",
          "type": "address"
        }
      ],
      "stateMutability": "view",
      "type": "function"
    },
    {
      "inputs": [
        {
          "internalType": "address",
          "name": "account",
          "type": "address"
        }
      ],
      "name": "balanceOf",
      "outputs": [
        {
          "internalType": "uint256",
          "name": "",
          "type": "uint256"
        }
      ],
      "stateMutability": "view",
      "type": "function"
    },
    {
      "inputs": [
        {
          "internalType": "address",
          "name": "holder",
          "type": "address"
        },
        {
          "internalType": "address",
          "name": "spender",
          "type": "address"
        }
      ],
      "name": "allowance",
      "outputs": [
        {
          "internalType": "uint256",
          "name": "",
          "type": "uint256"
        }
      ],
      "stateMutability": "view",
      "type": "function"
    },
    {
      "inputs": [
        {
          "internalType": "address",
          "name": "spender",
          "type": "address"
        },
        {
          "internalType": "uint256",
          "name": "amount",
          "type": "uint256"
        }
      ],
      "name": "approve",
      "outputs": [
        {
          "internalType": "bool",
          "name": "",
          "type": "bool"
        }
      ],
      "stateMutability": "nonpayable",
      "type": "function"
    },
    {
      "inputs": [
        {
          "internalType": "address",
          "name": "spender",
          "type": "address"
        }
      ],
      "name": "approveMax",
      "outputs": [
        {
          "internalType": "bool",
          "name": "",
          "type": "bool"
        }
      ],
      "stateMutability": "nonpayable",
      "type": "function"
    },
    {
      "inputs": [
        {
          "internalType": "address",
          "name": "recipient",
          "type": "address"
        },
        {
          "internalType": "uint256",
          "name": "amount",
          "type": "uint256"
        }
      ],
      "name": "transfer",
      "outputs": [
        {
          "internalType": "bool",
          "name": "",
          "type": "bool"
        }
      ],
      "stateMutability": "nonpayable",
      "type": "function"
    },
    {
      "inputs": [
        {
          "internalType": "address",
          "name": "sender",
          "type": "address"
        },
        {
          "internalType": "address",
          "name": "recipient",
          "type": "address"
        },
        {
          "internalType": "uint256",
          "name": "amount",
          "type": "uint256"
        }
      ],
      "name": "transferFrom",
      "outputs": [
        {
          "internalType": "bool",
          "name": "",
          "type": "bool"
        }
      ],
      "stateMutability": "nonpayable",
      "type": "function"
    },
    {
      "inputs": [
        {
          "internalType": "bool",
          "name": "selling",
          "type": "bool"
        }
      ],
      "name": "getTotalFee",
      "outputs": [
        {
          "internalType": "uint256",
          "name": "",
          "type": "uint256"
        }
      ],
      "stateMutability": "view",
      "type": "function"
    },
    {
      "inputs": [],
      "name": "getMultipliedFee",
      "outputs": [
        {
          "internalType": "uint256",
          "name": "",
          "type": "uint256"
        }
      ],
      "stateMutability": "view",
      "type": "function"
    },
    {
      "inputs": [
        {
          "internalType": "uint256",
          "name": "amount",
          "type": "uint256"
        },
        {
          "internalType": "bool",
          "name": "triggerBuybackMultiplier",
          "type": "bool"
        }
      ],
      "name": "triggerZeusBuyback",
      "outputs": [],
      "stateMutability": "nonpayable",
      "type": "function"
    },
    {
      "inputs": [],
      "name": "clearBuybackMultiplier",
      "outputs": [],
      "stateMutability": "nonpayable",
      "type": "function"
    },
    {
      "inputs": [
        {
          "internalType": "bool",
          "name": "_enabled",
          "type": "bool"
        },
        {
          "internalType": "uint256",
          "name": "_cap",
          "type": "uint256"
        },
        {
          "internalType": "uint256",
          "name": "_amount",
          "type": "uint256"
        },
        {
          "internalType": "uint256",
          "name": "_period",
          "type": "uint256"
        }
      ],
      "name": "setAutoBuybackSettings",
      "outputs": [],
      "stateMutability": "nonpayable",
      "type": "function"
    },
    {
      "inputs": [
        {
          "internalType": "uint256",
          "name": "numerator",
          "type": "uint256"
        },
        {
          "internalType": "uint256",
          "name": "denominator",
          "type": "uint256"
        },
        {
          "internalType": "uint256",
          "name": "length",
          "type": "uint256"
        }
      ],
      "name": "setBuybackMultiplierSettings",
      "outputs": [],
      "stateMutability": "nonpayable",
      "type": "function"
    },
    {
      "inputs": [],
      "name": "launch",
      "outputs": [],
      "stateMutability": "nonpayable",
      "type": "function"
    },
    {
      "inputs": [
        {
          "internalType": "uint256",
          "name": "amount",
          "type": "uint256"
        }
      ],
      "name": "setTxLimit",
      "outputs": [],
      "stateMutability": "nonpayable",
      "type": "function"
    },
    {
      "inputs": [
        {
          "internalType": "address",
          "name": "holder",
          "type": "address"
        },
        {
          "internalType": "bool",
          "name": "exempt",
          "type": "bool"
        }
      ],
      "name": "setIsDividendExempt",
      "outputs": [],
      "stateMutability": "nonpayable",
      "type": "function"
    },
    {
      "inputs": [
        {
          "internalType": "address",
          "name": "holder",
          "type": "address"
        },
        {
          "internalType": "bool",
          "name": "exempt",
          "type": "bool"
        }
      ],
      "name": "setIsFeeExempt",
      "outputs": [],
      "stateMutability": "nonpayable",
      "type": "function"
    },
    {
      "inputs": [
        {
          "internalType": "address",
          "name": "holder",
          "type": "address"
        },
        {
          "internalType": "bool",
          "name": "exempt",
          "type": "bool"
        }
      ],
      "name": "setIsTxLimitExempt",
      "outputs": [],
      "stateMutability": "nonpayable",
      "type": "function"
    },
    {
      "inputs": [
        {
          "internalType": "uint256",
          "name": "_liquidityFee",
          "type": "uint256"
        },
        {
          "internalType": "uint256",
          "name": "_buybackFee",
          "type": "uint256"
        },
        {
          "internalType": "uint256",
          "name": "_reflectionFee",
          "type": "uint256"
        },
        {
          "internalType": "uint256",
          "name": "_marketingFee",
          "type": "uint256"
        },
        {
          "internalType": "uint256",
          "name": "_feeDenominator",
          "type": "uint256"
        }
      ],
      "name": "setFees",
      "outputs": [],
      "stateMutability": "nonpayable",
      "type": "function"
    },
    {
      "inputs": [
        {
          "internalType": "address",
          "name": "_autoLiquidityReceiver",
          "type": "address"
        },
        {
          "internalType": "address",
          "name": "_marketingFeeReceiver",
          "type": "address"
        }
      ],
      "name": "setFeeReceivers",
      "outputs": [],
      "stateMutability": "nonpayable",
      "type": "function"
    },
    {
      "inputs": [
        {
          "internalType": "bool",
          "name": "_enabled",
          "type": "bool"
        },
        {
          "internalType": "uint256",
          "name": "_amount",
          "type": "uint256"
        }
      ],
      "name": "setSwapBackSettings",
      "outputs": [],
      "stateMutability": "nonpayable",
      "type": "function"
    },
    {
      "inputs": [
        {
          "internalType": "uint256",
          "name": "_target",
          "type": "uint256"
        },
        {
          "internalType": "uint256",
          "name": "_denominator",
          "type": "uint256"
        }
      ],
      "name": "setTargetLiquidity",
      "outputs": [],
      "stateMutability": "nonpayable",
      "type": "function"
    },
    {
      "inputs": [
        {
          "internalType": "uint256",
          "name": "_minPeriod",
          "type": "uint256"
        },
        {
          "internalType": "uint256",
          "name": "_minDistribution",
          "type": "uint256"
        }
      ],
      "name": "setDistributionCriteria",
      "outputs": [],
      "stateMutability": "nonpayable",
      "type": "function"
    },
    {
      "inputs": [
        {
          "internalType": "uint256",
          "name": "gas",
          "type": "uint256"
        }
      ],
      "name": "setDistributorSettings",
      "outputs": [],
      "stateMutability": "nonpayable",
      "type": "function"
    },
    {
      "inputs": [],
      "name": "getCirculatingSupply",
      "outputs": [
        {
          "internalType": "uint256",
          "name": "",
          "type": "uint256"
        }
      ],
      "stateMutability": "view",
      "type": "function"
    },
    {
      "inputs": [
        {
          "internalType": "uint256",
          "name": "accuracy",
          "type": "uint256"
        }
      ],
      "name": "getLiquidityBacking",
      "outputs": [
        {
          "internalType": "uint256",
          "name": "",
          "type": "uint256"
        }
      ],
      "stateMutability": "view",
      "type": "function"
    },
    {
      "inputs": [
        {
          "internalType": "uint256",
          "name": "target",
          "type": "uint256"
        },
        {
          "internalType": "uint256",
          "name": "accuracy",
          "type": "uint256"
        }
      ],
      "name": "isOverLiquified",
      "outputs": [
        {
          "internalType": "bool",
          "name": "",
          "type": "bool"
        }
      ],
      "stateMutability": "view",
      "type": "function"
    }
  ],
  "bytecode": "0x608060405273e9e7cea3dedca5984780bafc599bd69add087d56600260006101000a81548173ffffffffffffffffffffffffffffffffffffffff021916908373ffffffffffffffffffffffffffffffffffffffff16021790555073bb4cdb9cbd36b01bd1cbaebf2de08d9173bc095c600360006101000a81548173ffffffffffffffffffffffffffffffffffffffff021916908373ffffffffffffffffffffffffffffffffffffffff16021790555061dead600460006101000a81548173ffffffffffffffffffffffffffffffffffffffff021916908373ffffffffffffffffffffffffffffffffffffffff1602179055506000600560006101000a81548173ffffffffffffffffffffffffffffffffffffffff021916908373ffffffffffffffffffffffffffffffffffffffff16021790555061dead600660006101000a81548173ffffffffffffffffffffffffffffffffffffffff021916908373ffffffffffffffffffffffffffffffffffffffff1602179055506009600a62000186919062000da8565b66038d7ea4c680006200019a919062000ee5565b600755620001bb61019060075462000b2f60201b620021741790919060201c565b60085560c8600e5561012c600f5561032060105560646011556105786012556127106013556019601655606460175560c8601c556064601d55610708601f556000602060006101000a81548160ff0219169083151502179055506207a1206029556001602a60006101000a81548160ff0219169083151502179055506107d060075462000249919062000d15565b602b553480156200025957600080fd5b5060405162006f6338038062006f6383398181016040528101906200027f919062000c60565b33806000806101000a81548173ffffffffffffffffffffffffffffffffffffffff021916908373ffffffffffffffffffffffffffffffffffffffff16021790555060018060008373ffffffffffffffffffffffffffffffffffffffff1673ffffffffffffffffffffffffffffffffffffffff16815260200190815260200160002060006101000a81548160ff0219169083151502179055505080601860006101000a81548173ffffffffffffffffffffffffffffffffffffffff021916908373ffffffffffffffffffffffffffffffffffffffff160217905550601860009054906101000a900473ffffffffffffffffffffffffffffffffffffffff1673ffffffffffffffffffffffffffffffffffffffff1663c45a01556040518163ffffffff1660e01b815260040160206040518083038186803b158015620003c257600080fd5b505afa158015620003d7573d6000803e3d6000fd5b505050506040513d601f19601f82011682018060405250810190620003fd919062000c60565b73ffffffffffffffffffffffffffffffffffffffff1663c9c65396600360009054906101000a900473ffffffffffffffffffffffffffffffffffffffff16306040518363ffffffff1660e01b81526004016200045b92919062000ccb565b602060405180830381600087803b1580156200047657600080fd5b505af11580156200048b573d6000803e3d6000fd5b505050506040513d601f19601f82011682018060405250810190620004b1919062000c60565b601960006101000a81548173ffffffffffffffffffffffffffffffffffffffff021916908373ffffffffffffffffffffffffffffffffffffffff160217905550600754600a60003073ffffffffffffffffffffffffffffffffffffffff1673ffffffffffffffffffffffffffffffffffffffff1681526020019081526020016000206000601860009054906101000a900473ffffffffffffffffffffffffffffffffffffffff1673ffffffffffffffffffffffffffffffffffffffff1673ffffffffffffffffffffffffffffffffffffffff16815260200190815260200160002081905550601860009054906101000a900473ffffffffffffffffffffffffffffffffffffffff1673ffffffffffffffffffffffffffffffffffffffff1663ad5c46486040518163ffffffff1660e01b815260040160206040518083038186803b158015620005ff57600080fd5b505afa15801562000614573d6000803e3d6000fd5b505050506040513d601f19601f820116820180604052508101906200063a919062000c60565b600360006101000a81548173ffffffffffffffffffffffffffffffffffffffff021916908373ffffffffffffffffffffffffffffffffffffffff16021790555080604051620006899062000c3b565b62000695919062000cae565b604051809103906000f080158015620006b2573d6000803e3d6000fd5b50602760006101000a81548173ffffffffffffffffffffffffffffffffffffffff021916908373ffffffffffffffffffffffffffffffffffffffff160217905550602760009054906101000a900473ffffffffffffffffffffffffffffffffffffffff16602860006101000a81548173ffffffffffffffffffffffffffffffffffffffff021916908373ffffffffffffffffffffffffffffffffffffffff1602179055506001600b60003373ffffffffffffffffffffffffffffffffffffffff1673ffffffffffffffffffffffffffffffffffffffff16815260200190815260200160002060006101000a81548160ff0219169083151502179055506001600c60003373ffffffffffffffffffffffffffffffffffffffff1673ffffffffffffffffffffffffffffffffffffffff16815260200190815260200160002060006101000a81548160ff0219169083151502179055506001600d6000601960009054906101000a900473ffffffffffffffffffffffffffffffffffffffff1673ffffffffffffffffffffffffffffffffffffffff1673ffffffffffffffffffffffffffffffffffffffff16815260200190815260200160002060006101000a81548160ff0219169083151502179055506001600d60003073ffffffffffffffffffffffffffffffffffffffff1673ffffffffffffffffffffffffffffffffffffffff16815260200190815260200160002060006101000a81548160ff0219169083151502179055506001600d6000600460009054906101000a900473ffffffffffffffffffffffffffffffffffffffff1673ffffffffffffffffffffffffffffffffffffffff1673ffffffffffffffffffffffffffffffffffffffff16815260200190815260200160002060006101000a81548160ff0219169083151502179055506001602160003373ffffffffffffffffffffffffffffffffffffffff1673ffffffffffffffffffffffffffffffffffffffff16815260200190815260200160002060006101000a81548160ff02191690831515021790555033601460006101000a81548173ffffffffffffffffffffffffffffffffffffffff021916908373ffffffffffffffffffffffffffffffffffffffff16021790555033601560006101000a81548173ffffffffffffffffffffffffffffffffffffffff021916908373ffffffffffffffffffffffffffffffffffffffff16021790555062000a408160075462000b4760201b60201c565b5062000a77601960009054906101000a900473ffffffffffffffffffffffffffffffffffffffff1660075462000b4760201b60201c565b50600754600960003373ffffffffffffffffffffffffffffffffffffffff1673ffffffffffffffffffffffffffffffffffffffff168152602001908152602001600020819055503373ffffffffffffffffffffffffffffffffffffffff16600073ffffffffffffffffffffffffffffffffffffffff167fddf252ad1be2c89b69c2b068fc378daa952ba7f163c4a11628f55a4df523b3ef60075460405162000b20919062000cf8565b60405180910390a35062001016565b6000818362000b3f919062000d15565b905092915050565b600081600a60003373ffffffffffffffffffffffffffffffffffffffff1673ffffffffffffffffffffffffffffffffffffffff16815260200190815260200160002060008573ffffffffffffffffffffffffffffffffffffffff1673ffffffffffffffffffffffffffffffffffffffff168152602001908152602001600020819055508273ffffffffffffffffffffffffffffffffffffffff163373ffffffffffffffffffffffffffffffffffffffff167f8c5be1e5ebec7d5bd14f71427d1e84f3dd0314c0f7b2291e5b200ac8c7c3b9258460405162000c29919062000cf8565b60405180910390a36001905092915050565b611d46806200521d83390190565b60008151905062000c5a8162000ffc565b92915050565b60006020828403121562000c7357600080fd5b600062000c838482850162000c49565b91505092915050565b62000c978162000f46565b82525050565b62000ca88162000f7a565b82525050565b600060208201905062000cc5600083018462000c8c565b92915050565b600060408201905062000ce2600083018562000c8c565b62000cf1602083018462000c8c565b9392505050565b600060208201905062000d0f600083018462000c9d565b92915050565b600062000d228262000f7a565b915062000d2f8362000f7a565b92508262000d425762000d4162000fc0565b5b828204905092915050565b6000808291508390505b600185111562000d9f5780860481111562000d775762000d7662000f91565b5b600185161562000d875780820291505b808102905062000d978562000fef565b945062000d57565b94509492505050565b600062000db58262000f7a565b915062000dc28362000f84565b925062000df17fffffffffffffffffffffffffffffffffffffffffffffffffffffffffffffffff848462000df9565b905092915050565b60008262000e0b576001905062000ede565b8162000e1b576000905062000ede565b816001811462000e34576002811462000e3f5762000e75565b600191505062000ede565b60ff84111562000e545762000e5362000f91565b5b8360020a91508482111562000e6e5762000e6d62000f91565b5b5062000ede565b5060208310610133831016604e8410600b841016171562000eaf5782820a90508381111562000ea95762000ea862000f91565b5b62000ede565b62000ebe848484600162000d4d565b9250905081840481111562000ed85762000ed762000f91565b5b81810290505b9392505050565b600062000ef28262000f7a565b915062000eff8362000f7a565b9250817fffffffffffffffffffffffffffffffffffffffffffffffffffffffffffffffff048311821515161562000f3b5762000f3a62000f91565b5b828202905092915050565b600062000f538262000f5a565b9050919050565b600073ffffffffffffffffffffffffffffffffffffffff82169050919050565b6000819050919050565b600060ff82169050919050565b7f4e487b7100000000000000000000000000000000000000000000000000000000600052601160045260246000fd5b7f4e487b7100000000000000000000000000000000000000000000000000000000600052601260045260246000fd5b60008160011c9050919050565b620010078162000f46565b81146200101357600080fd5b50565b6141f780620010266000396000f3fe6080604052600436106102b25760003560e01c806395d89b4111610175578063d806d12f116100dc578063f1f3bca311610095578063f708a64f1161006f578063f708a64f14610abd578063f84ba65d14610ae6578063f887ea4014610b0f578063fe9fbb8014610b3a576102b9565b8063f1f3bca314610a2e578063f2fde38b14610a6b578063f5cfec0a14610a94576102b9565b8063d806d12f1461091e578063dd62ed3e14610949578063df20fd4914610986578063e91f214e146109af578063e96fada2146109da578063f0b37c0414610a05576102b9565b8063b210b06d1161012e578063b210b06d14610820578063b6a5d7de14610837578063bf56b37114610860578063c6d2577d1461088b578063ca33e64c146108b6578063d51ed1c8146108e1576102b9565b806395d89b41146107105780639d1944f51461073b578063a4b45c0014610764578063a51af4c51461078d578063a8aa1b31146107b8578063a9059cbb146107e3576102b9565b80632d48e89611610219578063658d4b7f116101d2578063658d4b7f146105fe5780636ddd17131461062757806370a08231146106525780637d1db4a51461068f578063893d20e8146106ba5780638dd95002146106e5576102b9565b80632d48e896146104dc5780632f54bf6e14610505578063313ce567146105425780633bb8a8d41461056d578063571ac8b0146105985780635c85974f146105d5576102b9565b80631161ae391161026b5780631161ae39146103ba57806318160ddd146103f7578063201e7991146104225780632375ce401461044b57806323b872dd146104745780632b112e49146104b1576102b9565b806301339c21146102be5780630445b667146102d5578063048c7baf1461030057806304a66b481461032957806306fdde0314610352578063095ea7b31461037d576102b9565b366102b957005b600080fd5b3480156102ca57600080fd5b506102d3610b77565b005b3480156102e157600080fd5b506102ea610c14565b6040516102f79190613dcd565b60405180910390f35b34801561030c57600080fd5b5061032760048036038101906103229190613780565b610c1a565b005b34801561033557600080fd5b50610350600480360381019061034b9190613922565b610ca6565b005b34801561035e57600080fd5b50610367610d71565b6040516103749190613d2b565b60405180910390f35b34801561038957600080fd5b506103a4600480360381019061039f91906136df565b610dae565b6040516103b19190613ca9565b60405180910390f35b3480156103c657600080fd5b506103e160048036038101906103dc9190613848565b610ea0565b6040516103ee9190613ca9565b60405180910390f35b34801561040357600080fd5b5061040c610eb5565b6040516104199190613dcd565b60405180910390f35b34801561042e57600080fd5b5061044960048036038101906104449190613848565b610ebf565b005b34801561045757600080fd5b50610472600480360381019061046d9190613884565b610f19565b005b34801561048057600080fd5b5061049b60048036038101906104969190613654565b610f9f565b6040516104a89190613ca9565b60405180910390f35b3480156104bd57600080fd5b506104c6611181565b6040516104d39190613dcd565b60405180910390f35b3480156104e857600080fd5b5061050360048036038101906104fe9190613848565b611203565b005b34801561051157600080fd5b5061052c600480360381019061052791906135c6565b6112de565b6040516105399190613ca9565b60405180910390f35b34801561054e57600080fd5b50610557611337565b6040516105649190613e6b565b60405180910390f35b34801561057957600080fd5b50610582611340565b60405161058f9190613ca9565b60405180910390f35b3480156105a457600080fd5b506105bf60048036038101906105ba91906135c6565b611353565b6040516105cc9190613ca9565b60405180910390f35b3480156105e157600080fd5b506105fc60048036038101906105f791906137e3565b611368565b005b34801561060a57600080fd5b50610625600480360381019061062091906136a3565b6113d6565b005b34801561063357600080fd5b5061063c611479565b6040516106499190613ca9565b60405180910390f35b34801561065e57600080fd5b50610679600480360381019061067491906135c6565b61148c565b6040516106869190613dcd565b60405180910390f35b34801561069b57600080fd5b506106a46114d5565b6040516106b19190613dcd565b60405180910390f35b3480156106c657600080fd5b506106cf6114db565b6040516106dc9190613bc0565b60405180910390f35b3480156106f157600080fd5b506106fa611504565b6040516107079190613bc0565b60405180910390f35b34801561071c57600080fd5b5061072561152a565b6040516107329190613d2b565b60405180910390f35b34801561074757600080fd5b50610762600480360381019061075d91906137e3565b611567565b005b34801561077057600080fd5b5061078b60048036038101906107869190613618565b6115c8565b005b34801561079957600080fd5b506107a2611696565b6040516107af9190613bc0565b60405180910390f35b3480156107c457600080fd5b506107cd6116bc565b6040516107da9190613bc0565b60405180910390f35b3480156107ef57600080fd5b5061080a600480360381019061080591906136df565b6116e2565b6040516108179190613ca9565b60405180910390f35b34801561082c57600080fd5b506108356116f7565b005b34801561084357600080fd5b5061085e600480360381019061085991906135c6565b611749565b005b34801561086c57600080fd5b506108756117eb565b6040516108829190613dcd565b60405180910390f35b34801561089757600080fd5b506108a06117f1565b6040516108ad9190613dcd565b60405180910390f35b3480156108c257600080fd5b506108cb6117f7565b6040516108d89190613bc0565b60405180910390f35b3480156108ed57600080fd5b50610908600480360381019061090391906137e3565b61181d565b6040516109159190613dcd565b60405180910390f35b34801561092a57600080fd5b5061093361188f565b6040516109409190613dcd565b60405180910390f35b34801561095557600080fd5b50610970600480360381019061096b9190613618565b6119b6565b60405161097d9190613dcd565b60405180910390f35b34801561099257600080fd5b506109ad60048036038101906109a89190613744565b611a3d565b005b3480156109bb57600080fd5b506109c4611aaa565b6040516109d19190613dcd565b60405180910390f35b3480156109e657600080fd5b506109ef611ac0565b6040516109fc9190613bc0565b60405180910390f35b348015610a1157600080fd5b50610a2c6004803603810190610a2791906135c6565b611ae6565b005b348015610a3a57600080fd5b50610a556004803603810190610a50919061371b565b611b89565b604051610a629190613dcd565b60405180910390f35b348015610a7757600080fd5b50610a926004803603810190610a8d91906135ef565b611bdd565b005b348015610aa057600080fd5b50610abb6004803603810190610ab6919061380c565b611cf6565b005b348015610ac957600080fd5b50610ae46004803603810190610adf91906136a3565b611db5565b005b348015610af257600080fd5b50610b0d6004803603810190610b0891906136a3565b612055565b005b348015610b1b57600080fd5b50610b246120f8565b604051610b319190613cc4565b60405180910390f35b348015610b4657600080fd5b50610b616004803603810190610b5c91906135c6565b61211e565b604051610b6e9190613ca9565b60405180910390f35b610b803361211e565b610bbf576040517f08c379a0000000000000000000000000000000000000000000000000000000008152600401610bb690613dad565b60405180910390fd5b6000601a5414610c04576040517f08c379a0000000000000000000000000000000000000000000000000000000008152600401610bfb90613d6d565b60405180910390fd5b43601a8190555042601b81905550565b602b5481565b610c233361211e565b610c62576040517f08c379a0000000000000000000000000000000000000000000000000000000008152600401610c5990613dad565b60405180910390fd5b83602060006101000a81548160ff02191690831515021790555082602281905550600060238190555081602481905550806025819055504360268190555050505050565b610caf3361211e565b610cee576040517f08c379a0000000000000000000000000000000000000000000000000000000008152600401610ce590613dad565b60405180910390fd5b84600e8190555083600f819055508260108190555081601181905550610d4182610d3385610d25888a61218a90919063ffffffff16565b61218a90919063ffffffff16565b61218a90919063ffffffff16565b601281905550806013819055506004601354610d5d9190613f31565b60125410610d6a57600080fd5b5050505050565b60606040518060400160405280600d81526020017f4576657247726f7720436f696e00000000000000000000000000000000000000815250905090565b600081600a60003373ffffffffffffffffffffffffffffffffffffffff1673ffffffffffffffffffffffffffffffffffffffff16815260200190815260200160002060008573ffffffffffffffffffffffffffffffffffffffff1673ffffffffffffffffffffffffffffffffffffffff168152602001908152602001600020819055508273ffffffffffffffffffffffffffffffffffffffff163373ffffffffffffffffffffffffffffffffffffffff167f8c5be1e5ebec7d5bd14f71427d1e84f3dd0314c0f7b2291e5b200ac8c7c3b92584604051610e8e9190613dcd565b60405180910390a36001905092915050565b600082610eac8361181d565b11905092915050565b6000600754905090565b610ec83361211e565b610f07576040517f08c379a0000000000000000000000000000000000000000000000000000000008152600401610efe90613dad565b60405180910390fd5b81601681905550806017819055505050565b610f223361211e565b610f61576040517f08c379a0000000000000000000000000000000000000000000000000000000008152600401610f5890613dad565b60405180910390fd5b60028284610f6f9190613f31565b11158015610f7c57508183115b610f8557600080fd5b82601c8190555081601d8190555080601f81905550505050565b6000600754600a60008673ffffffffffffffffffffffffffffffffffffffff1673ffffffffffffffffffffffffffffffffffffffff16815260200190815260200160002060003373ffffffffffffffffffffffffffffffffffffffff1673ffffffffffffffffffffffffffffffffffffffff168152602001908152602001600020541461116d576110ec826040518060400160405280601681526020017f496e73756666696369656e7420416c6c6f77616e636500000000000000000000815250600a60008873ffffffffffffffffffffffffffffffffffffffff1673ffffffffffffffffffffffffffffffffffffffff16815260200190815260200160002060003373ffffffffffffffffffffffffffffffffffffffff1673ffffffffffffffffffffffffffffffffffffffff168152602001908152602001600020546121a09092919063ffffffff16565b600a60008673ffffffffffffffffffffffffffffffffffffffff1673ffffffffffffffffffffffffffffffffffffffff16815260200190815260200160002060003373ffffffffffffffffffffffffffffffffffffffff1673ffffffffffffffffffffffffffffffffffffffff168152602001908152602001600020819055505b6111788484846121f5565b90509392505050565b60006111fe6111b1600560009054906101000a900473ffffffffffffffffffffffffffffffffffffffff1661148c565b6111f06111df600460009054906101000a900473ffffffffffffffffffffffffffffffffffffffff1661148c565b60075461272290919063ffffffff16565b61272290919063ffffffff16565b905090565b61120c3361211e565b61124b576040517f08c379a000000000000000000000000000000000000000000000000000000000815260040161124290613dad565b60405180910390fd5b602760009054906101000a900473ffffffffffffffffffffffffffffffffffffffff1673ffffffffffffffffffffffffffffffffffffffff16632d48e89683836040518363ffffffff1660e01b81526004016112a8929190613e42565b600060405180830381600087803b1580156112c257600080fd5b505af11580156112d6573d6000803e3d6000fd5b505050505050565b60008060009054906101000a900473ffffffffffffffffffffffffffffffffffffffff1673ffffffffffffffffffffffffffffffffffffffff168273ffffffffffffffffffffffffffffffffffffffff16149050919050565b60006009905090565b602060009054906101000a900460ff1681565b600061136182600754610dae565b9050919050565b6113713361211e565b6113b0576040517f08c379a00000000000000000000000000000000000000000000000000000000081526004016113a790613dad565b60405180910390fd5b6103e86007546113c09190613f31565b8110156113cc57600080fd5b8060088190555050565b6113df3361211e565b61141e576040517f08c379a000000000000000000000000000000000000000000000000000000000815260040161141590613dad565b60405180910390fd5b80600b60008473ffffffffffffffffffffffffffffffffffffffff1673ffffffffffffffffffffffffffffffffffffffff16815260200190815260200160002060006101000a81548160ff0219169083151502179055505050565b602a60009054906101000a900460ff1681565b6000600960008373ffffffffffffffffffffffffffffffffffffffff1673ffffffffffffffffffffffffffffffffffffffff168152602001908152602001600020549050919050565b60085481565b60008060009054906101000a900473ffffffffffffffffffffffffffffffffffffffff16905090565b600360009054906101000a900473ffffffffffffffffffffffffffffffffffffffff1681565b60606040518060400160405280600381526020017f4547430000000000000000000000000000000000000000000000000000000000815250905090565b6115703361211e565b6115af576040517f08c379a00000000000000000000000000000000000000000000000000000000081526004016115a690613dad565b60405180910390fd5b620b71b081106115be57600080fd5b8060298190555050565b6115d13361211e565b611610576040517f08c379a000000000000000000000000000000000000000000000000000000000815260040161160790613dad565b60405180910390fd5b81601460006101000a81548173ffffffffffffffffffffffffffffffffffffffff021916908373ffffffffffffffffffffffffffffffffffffffff16021790555080601560006101000a81548173ffffffffffffffffffffffffffffffffffffffff021916908373ffffffffffffffffffffffffffffffffffffffff1602179055505050565b602860009054906101000a900473ffffffffffffffffffffffffffffffffffffffff1681565b601960009054906101000a900473ffffffffffffffffffffffffffffffffffffffff1681565b60006116ef3384846121f5565b905092915050565b6117003361211e565b61173f576040517f08c379a000000000000000000000000000000000000000000000000000000000815260040161173690613dad565b60405180910390fd5b6000601e81905550565b611752336112de565b611791576040517f08c379a000000000000000000000000000000000000000000000000000000000815260040161178890613d8d565b60405180910390fd5b60018060008373ffffffffffffffffffffffffffffffffffffffff1673ffffffffffffffffffffffffffffffffffffffff16815260200190815260200160002060006101000a81548160ff02191690831515021790555050565b601a5481565b601b5481565b601460009054906101000a900473ffffffffffffffffffffffffffffffffffffffff1681565b600061188861182a611181565b61187a61186b600261185d601960009054906101000a900473ffffffffffffffffffffffffffffffffffffffff1661148c565b61273890919063ffffffff16565b8561273890919063ffffffff16565b61217490919063ffffffff16565b9050919050565b60004262015180601b546118a39190613edb565b11156118db576118d46013546118c661465060125461273890919063ffffffff16565b61217490919063ffffffff16565b90506119b3565b426118f3601f54601e5461218a90919063ffffffff16565b11156119ad57600061192442611916601f54601e5461218a90919063ffffffff16565b61272290919063ffffffff16565b90506000611967601254611959601d5461194b601c5460125461273890919063ffffffff16565b61217490919063ffffffff16565b61272290919063ffffffff16565b90506119a4611993601f54611985858561273890919063ffffffff16565b61217490919063ffffffff16565b60125461218a90919063ffffffff16565b925050506119b3565b60125490505b90565b6000600a60008473ffffffffffffffffffffffffffffffffffffffff1673ffffffffffffffffffffffffffffffffffffffff16815260200190815260200160002060008373ffffffffffffffffffffffffffffffffffffffff1673ffffffffffffffffffffffffffffffffffffffff16815260200190815260200160002054905092915050565b611a463361211e565b611a85576040517f08c379a0000000000000000000000000000000000000000000000000000000008152600401611a7c90613dad565b60405180910390fd5b81602a60006101000a81548160ff02191690831515021790555080602b819055505050565b6fffffffffffffffffffffffffffffffff801681565b601560009054906101000a900473ffffffffffffffffffffffffffffffffffffffff1681565b611aef336112de565b611b2e576040517f08c379a0000000000000000000000000000000000000000000000000000000008152600401611b2590613d8d565b60405180910390fd5b6000600160008373ffffffffffffffffffffffffffffffffffffffff1673ffffffffffffffffffffffffffffffffffffffff16815260200190815260200160002060006101000a81548160ff02191690831515021790555050565b6000436001601a54611b9b9190613edb565b10611bbd57611bb6600160135461272290919063ffffffff16565b9050611bd8565b8115611bd257611bcb61188f565b9050611bd8565b60125490505b919050565b611be6336112de565b611c25576040517f08c379a0000000000000000000000000000000000000000000000000000000008152600401611c1c90613d8d565b60405180910390fd5b806000806101000a81548173ffffffffffffffffffffffffffffffffffffffff021916908373ffffffffffffffffffffffffffffffffffffffff16021790555060018060008373ffffffffffffffffffffffffffffffffffffffff1673ffffffffffffffffffffffffffffffffffffffff16815260200190815260200160002060006101000a81548160ff0219169083151502179055507f04dba622d284ed0014ee4b9a6a68386be1a4c08a4913ae272de89199cc68616381604051611ceb9190613bdb565b60405180910390a150565b611cff3361211e565b611d3e576040517f08c379a0000000000000000000000000000000000000000000000000000000008152600401611d3590613dad565b60405180910390fd5b611d6a82600460009054906101000a900473ffffffffffffffffffffffffffffffffffffffff1661274e565b8015611db15742601e819055507f39d2389ec5c1fa77b2c0d374bc61b6d7bd97ccba280fcdeb4e9c7644898d7c3a601f54604051611da89190613dcd565b60405180910390a15b5050565b611dbe3361211e565b611dfd576040517f08c379a0000000000000000000000000000000000000000000000000000000008152600401611df490613dad565b60405180910390fd5b3073ffffffffffffffffffffffffffffffffffffffff168273ffffffffffffffffffffffffffffffffffffffff1614158015611e875750601960009054906101000a900473ffffffffffffffffffffffffffffffffffffffff1673ffffffffffffffffffffffffffffffffffffffff168273ffffffffffffffffffffffffffffffffffffffff1614155b611e9057600080fd5b80600d60008473ffffffffffffffffffffffffffffffffffffffff1673ffffffffffffffffffffffffffffffffffffffff16815260200190815260200160002060006101000a81548160ff0219169083151502179055508015611f8257602760009054906101000a900473ffffffffffffffffffffffffffffffffffffffff1673ffffffffffffffffffffffffffffffffffffffff166314b6ca968360006040518363ffffffff1660e01b8152600401611f4b929190613bf6565b600060405180830381600087803b158015611f6557600080fd5b505af1158015611f79573d6000803e3d6000fd5b50505050612051565b602760009054906101000a900473ffffffffffffffffffffffffffffffffffffffff1673ffffffffffffffffffffffffffffffffffffffff166314b6ca9683600960008673ffffffffffffffffffffffffffffffffffffffff1673ffffffffffffffffffffffffffffffffffffffff168152602001908152602001600020546040518363ffffffff1660e01b815260040161201e929190613c1f565b600060405180830381600087803b15801561203857600080fd5b505af115801561204c573d6000803e3d6000fd5b505050505b5050565b61205e3361211e565b61209d576040517f08c379a000000000000000000000000000000000000000000000000000000000815260040161209490613dad565b60405180910390fd5b80600c60008473ffffffffffffffffffffffffffffffffffffffff1673ffffffffffffffffffffffffffffffffffffffff16815260200190815260200160002060006101000a81548160ff0219169083151502179055505050565b601860009054906101000a900473ffffffffffffffffffffffffffffffffffffffff1681565b6000600160008373ffffffffffffffffffffffffffffffffffffffff1673ffffffffffffffffffffffffffffffffffffffff16815260200190815260200160002060009054906101000a900460ff169050919050565b600081836121829190613f31565b905092915050565b600081836121989190613edb565b905092915050565b60008383111582906121e8576040517f08c379a00000000000000000000000000000000000000000000000000000000081526004016121df9190613d2b565b60405180910390fd5b5082840390509392505050565b6000602c60009054906101000a900460ff161561221e5761221784848461299e565b905061271b565b6122288483612b0c565b612230612ba9565b1561223e5761223d612c80565b5b61224661323c565b15612254576122536132ef565b5b6122dd826040518060400160405280601481526020017f496e73756666696369656e742042616c616e6365000000000000000000000000815250600960008873ffffffffffffffffffffffffffffffffffffffff1673ffffffffffffffffffffffffffffffffffffffff168152602001908152602001600020546121a09092919063ffffffff16565b600960008673ffffffffffffffffffffffffffffffffffffffff1673ffffffffffffffffffffffffffffffffffffffff16815260200190815260200160002081905550600061232b8561336b565b6123355782612341565b6123408585856133c2565b5b905061239581600960008773ffffffffffffffffffffffffffffffffffffffff1673ffffffffffffffffffffffffffffffffffffffff1681526020019081526020016000205461218a90919063ffffffff16565b600960008673ffffffffffffffffffffffffffffffffffffffff1673ffffffffffffffffffffffffffffffffffffffff16815260200190815260200160002081905550600d60008673ffffffffffffffffffffffffffffffffffffffff1673ffffffffffffffffffffffffffffffffffffffff16815260200190815260200160002060009054906101000a900460ff166124fb57602760009054906101000a900473ffffffffffffffffffffffffffffffffffffffff1673ffffffffffffffffffffffffffffffffffffffff166314b6ca9686600960008973ffffffffffffffffffffffffffffffffffffffff1673ffffffffffffffffffffffffffffffffffffffff168152602001908152602001600020546040518363ffffffff1660e01b81526004016124c5929190613c1f565b600060405180830381600087803b1580156124df57600080fd5b505af19250505080156124f0575060015b6124f9576124fa565b5b5b600d60008573ffffffffffffffffffffffffffffffffffffffff1673ffffffffffffffffffffffffffffffffffffffff16815260200190815260200160002060009054906101000a900460ff1661261e57602760009054906101000a900473ffffffffffffffffffffffffffffffffffffffff1673ffffffffffffffffffffffffffffffffffffffff166314b6ca9685600960008873ffffffffffffffffffffffffffffffffffffffff1673ffffffffffffffffffffffffffffffffffffffff168152602001908152602001600020546040518363ffffffff1660e01b81526004016125e8929190613c1f565b600060405180830381600087803b15801561260257600080fd5b505af1925050508015612613575060015b61261c5761261d565b5b5b602760009054906101000a900473ffffffffffffffffffffffffffffffffffffffff1673ffffffffffffffffffffffffffffffffffffffff1663ffb2c4796029546040518263ffffffff1660e01b815260040161267b9190613dcd565b600060405180830381600087803b15801561269557600080fd5b505af19250505080156126a6575060015b6126af576126b0565b5b8373ffffffffffffffffffffffffffffffffffffffff168573ffffffffffffffffffffffffffffffffffffffff167fddf252ad1be2c89b69c2b068fc378daa952ba7f163c4a11628f55a4df523b3ef8360405161270d9190613dcd565b60405180910390a360019150505b9392505050565b600081836127309190613fbc565b905092915050565b600081836127469190613f62565b905092915050565b6001602c60006101000a81548160ff0219169083151502179055506000600267ffffffffffffffff8111156127ac577f4e487b7100000000000000000000000000000000000000000000000000000000600052604160045260246000fd5b6040519080825280602002602001820160405280156127da5781602001602082028036833780820191505090505b509050600360009054906101000a900473ffffffffffffffffffffffffffffffffffffffff168160008151811061283a577f4e487b7100000000000000000000000000000000000000000000000000000000600052603260045260246000fd5b602002602001019073ffffffffffffffffffffffffffffffffffffffff16908173ffffffffffffffffffffffffffffffffffffffff168152505030816001815181106128af577f4e487b7100000000000000000000000000000000000000000000000000000000600052603260045260246000fd5b602002602001019073ffffffffffffffffffffffffffffffffffffffff16908173ffffffffffffffffffffffffffffffffffffffff1681525050601860009054906101000a900473ffffffffffffffffffffffffffffffffffffffff1673ffffffffffffffffffffffffffffffffffffffff1663b6f9de958460008486426040518663ffffffff1660e01b815260040161294c9493929190613cdf565b6000604051808303818588803b15801561296557600080fd5b505af1158015612979573d6000803e3d6000fd5b5050505050506000602c60006101000a81548160ff0219169083151502179055505050565b6000612a29826040518060400160405280601481526020017f496e73756666696369656e742042616c616e6365000000000000000000000000815250600960008873ffffffffffffffffffffffffffffffffffffffff1673ffffffffffffffffffffffffffffffffffffffff168152602001908152602001600020546121a09092919063ffffffff16565b600960008673ffffffffffffffffffffffffffffffffffffffff1673ffffffffffffffffffffffffffffffffffffffff16815260200190815260200160002081905550612abe82600960008673ffffffffffffffffffffffffffffffffffffffff1673ffffffffffffffffffffffffffffffffffffffff1681526020019081526020016000205461218a90919063ffffffff16565b600960008573ffffffffffffffffffffffffffffffffffffffff1673ffffffffffffffffffffffffffffffffffffffff16815260200190815260200160002081905550600190509392505050565b60085481111580612b665750600c60008373ffffffffffffffffffffffffffffffffffffffff1673ffffffffffffffffffffffffffffffffffffffff16815260200190815260200160002060009054906101000a900460ff165b612ba5576040517f08c379a0000000000000000000000000000000000000000000000000000000008152600401612b9c90613d4d565b60405180910390fd5b5050565b6000601960009054906101000a900473ffffffffffffffffffffffffffffffffffffffff1673ffffffffffffffffffffffffffffffffffffffff163373ffffffffffffffffffffffffffffffffffffffff1614158015612c165750602c60009054906101000a900460ff16155b8015612c2e5750602a60009054906101000a900460ff165b8015612c7b5750602b54600960003073ffffffffffffffffffffffffffffffffffffffff1673ffffffffffffffffffffffffffffffffffffffff1681526020019081526020016000205410155b905090565b6001602c60006101000a81548160ff0219169083151502179055506000612cab601654601754610ea0565b612cb757600e54612cba565b60005b90506000612cfa6002612cec601254612cde86602b5461273890919063ffffffff16565b61217490919063ffffffff16565b61217490919063ffffffff16565b90506000612d1382602b5461272290919063ffffffff16565b90506000600267ffffffffffffffff811115612d58577f4e487b7100000000000000000000000000000000000000000000000000000000600052604160045260246000fd5b604051908082528060200260200182016040528015612d865781602001602082028036833780820191505090505b5090503081600081518110612dc4577f4e487b7100000000000000000000000000000000000000000000000000000000600052603260045260246000fd5b602002602001019073ffffffffffffffffffffffffffffffffffffffff16908173ffffffffffffffffffffffffffffffffffffffff1681525050600360009054906101000a900473ffffffffffffffffffffffffffffffffffffffff1681600181518110612e5b577f4e487b7100000000000000000000000000000000000000000000000000000000600052603260045260246000fd5b602002602001019073ffffffffffffffffffffffffffffffffffffffff16908173ffffffffffffffffffffffffffffffffffffffff16815250506000479050601860009054906101000a900473ffffffffffffffffffffffffffffffffffffffff1673ffffffffffffffffffffffffffffffffffffffff1663791ac9478460008530426040518663ffffffff1660e01b8152600401612efe959493929190613de8565b600060405180830381600087803b158015612f1857600080fd5b505af1158015612f2c573d6000803e3d6000fd5b505050506000612f45824761272290919063ffffffff16565b90506000612f71612f6060028961217490919063ffffffff16565b60125461272290919063ffffffff16565b90506000612fad6002612f9f84612f918c8861273890919063ffffffff16565b61217490919063ffffffff16565b61217490919063ffffffff16565b90506000612fd883612fca6010548761273890919063ffffffff16565b61217490919063ffffffff16565b9050600061300384612ff56011548861273890919063ffffffff16565b61217490919063ffffffff16565b9050602760009054906101000a900473ffffffffffffffffffffffffffffffffffffffff1673ffffffffffffffffffffffffffffffffffffffff1663d0e30db0836040518263ffffffff1660e01b81526004016000604051808303818588803b15801561306f57600080fd5b505af193505050508015613081575060015b61308a5761308b565b5b601560009054906101000a900473ffffffffffffffffffffffffffffffffffffffff1673ffffffffffffffffffffffffffffffffffffffff166108fc829081150290604051600060405180830381858888f193505050501580156130f3573d6000803e3d6000fd5b50600089111561321557601860009054906101000a900473ffffffffffffffffffffffffffffffffffffffff1673ffffffffffffffffffffffffffffffffffffffff1663f305d71984308c600080601460009054906101000a900473ffffffffffffffffffffffffffffffffffffffff16426040518863ffffffff1660e01b815260040161318696959493929190613c48565b6060604051808303818588803b15801561319f57600080fd5b505af11580156131b3573d6000803e3d6000fd5b50505050506040513d601f19601f820116820180604052508101906131d891906138d3565b5050507f424db2872186fa7e7afa7a5e902ed3b49a2ef19c2f5431e672462495dd6b4506838a60405161320c929190613e42565b60405180910390a15b505050505050505050506000602c60006101000a81548160ff021916908315150217905550565b6000601960009054906101000a900473ffffffffffffffffffffffffffffffffffffffff1673ffffffffffffffffffffffffffffffffffffffff163373ffffffffffffffffffffffffffffffffffffffff16141580156132a95750602c60009054906101000a900460ff16155b80156132c15750602060009054906101000a900460ff165b80156132dc5750436025546026546132d99190613edb565b11155b80156132ea57506024544710155b905090565b61331d602454600460009054906101000a900473ffffffffffffffffffffffffffffffffffffffff1661274e565b4360268190555061333b60245460235461218a90919063ffffffff16565b6023819055506022546023541115613369576000602060006101000a81548160ff0219169083151502179055505b565b6000600b60008373ffffffffffffffffffffffffffffffffffffffff1673ffffffffffffffffffffffffffffffffffffffff16815260200190815260200160002060009054906101000a900460ff16159050919050565b600080613444601354613436613427601960009054906101000a900473ffffffffffffffffffffffffffffffffffffffff1673ffffffffffffffffffffffffffffffffffffffff168873ffffffffffffffffffffffffffffffffffffffff1614611b89565b8661273890919063ffffffff16565b61217490919063ffffffff16565b905061349881600960003073ffffffffffffffffffffffffffffffffffffffff1673ffffffffffffffffffffffffffffffffffffffff1681526020019081526020016000205461218a90919063ffffffff16565b600960003073ffffffffffffffffffffffffffffffffffffffff1673ffffffffffffffffffffffffffffffffffffffff168152602001908152602001600020819055503073ffffffffffffffffffffffffffffffffffffffff168573ffffffffffffffffffffffffffffffffffffffff167fddf252ad1be2c89b69c2b068fc378daa952ba7f163c4a11628f55a4df523b3ef836040516135389190613dcd565b60405180910390a3613553818461272290919063ffffffff16565b9150509392505050565b60008135905061356c81614165565b92915050565b6000813590506135818161417c565b92915050565b60008135905061359681614193565b92915050565b6000813590506135ab816141aa565b92915050565b6000815190506135c0816141aa565b92915050565b6000602082840312156135d857600080fd5b60006135e68482850161355d565b91505092915050565b60006020828403121561360157600080fd5b600061360f84828501613572565b91505092915050565b6000806040838503121561362b57600080fd5b60006136398582860161355d565b925050602061364a8582860161355d565b9150509250929050565b60008060006060848603121561366957600080fd5b60006136778682870161355d565b93505060206136888682870161355d565b92505060406136998682870161359c565b9150509250925092565b600080604083850312156136b657600080fd5b60006136c48582860161355d565b92505060206136d585828601613587565b9150509250929050565b600080604083850312156136f257600080fd5b60006137008582860161355d565b92505060206137118582860161359c565b9150509250929050565b60006020828403121561372d57600080fd5b600061373b84828501613587565b91505092915050565b6000806040838503121561375757600080fd5b600061376585828601613587565b92505060206137768582860161359c565b9150509250929050565b6000806000806080858703121561379657600080fd5b60006137a487828801613587565b94505060206137b58782880161359c565b93505060406137c68782880161359c565b92505060606137d78782880161359c565b91505092959194509250565b6000602082840312156137f557600080fd5b60006138038482850161359c565b91505092915050565b6000806040838503121561381f57600080fd5b600061382d8582860161359c565b925050602061383e85828601613587565b9150509250929050565b6000806040838503121561385b57600080fd5b60006138698582860161359c565b925050602061387a8582860161359c565b9150509250929050565b60008060006060848603121561389957600080fd5b60006138a78682870161359c565b93505060206138b88682870161359c565b92505060406138c98682870161359c565b9150509250925092565b6000806000606084860312156138e857600080fd5b60006138f6868287016135b1565b9350506020613907868287016135b1565b9250506040613918868287016135b1565b9150509250925092565b600080600080600060a0868803121561393a57600080fd5b60006139488882890161359c565b95505060206139598882890161359c565b945050604061396a8882890161359c565b935050606061397b8882890161359c565b925050608061398c8882890161359c565b9150509295509295909350565b60006139a583836139c0565b60208301905092915050565b6139ba81614057565b82525050565b6139c981613ff0565b82525050565b6139d881613ff0565b82525050565b60006139e982613e96565b6139f38185613eb9565b93506139fe83613e86565b8060005b83811015613a2f578151613a168882613999565b9750613a2183613eac565b925050600181019050613a02565b5085935050505092915050565b613a4581614014565b82525050565b613a5481614069565b82525050565b613a638161408d565b82525050565b6000613a7482613ea1565b613a7e8185613eca565b9350613a8e8185602086016140c3565b613a9781614154565b840191505092915050565b6000613aaf601183613eca565b91507f5458204c696d69742045786365656465640000000000000000000000000000006000830152602082019050919050565b6000613aef601483613eca565b91507f416c7265616479206c61756e6368656420626f690000000000000000000000006000830152602082019050919050565b6000613b2f600683613eca565b91507f214f574e455200000000000000000000000000000000000000000000000000006000830152602082019050919050565b6000613b6f600b83613eca565b91507f21415554484f52495a45440000000000000000000000000000000000000000006000830152602082019050919050565b613bab81614040565b82525050565b613bba8161404a565b82525050565b6000602082019050613bd560008301846139cf565b92915050565b6000602082019050613bf060008301846139b1565b92915050565b6000604082019050613c0b60008301856139cf565b613c186020830184613a5a565b9392505050565b6000604082019050613c3460008301856139cf565b613c416020830184613ba2565b9392505050565b600060c082019050613c5d60008301896139cf565b613c6a6020830188613ba2565b613c776040830187613a5a565b613c846060830186613a5a565b613c9160808301856139cf565b613c9e60a0830184613ba2565b979650505050505050565b6000602082019050613cbe6000830184613a3c565b92915050565b6000602082019050613cd96000830184613a4b565b92915050565b6000608082019050613cf46000830187613a5a565b8181036020830152613d0681866139de565b9050613d1560408301856139cf565b613d226060830184613ba2565b95945050505050565b60006020820190508181036000830152613d458184613a69565b905092915050565b60006020820190508181036000830152613d6681613aa2565b9050919050565b60006020820190508181036000830152613d8681613ae2565b9050919050565b60006020820190508181036000830152613da681613b22565b9050919050565b60006020820190508181036000830152613dc681613b62565b9050919050565b6000602082019050613de26000830184613ba2565b92915050565b600060a082019050613dfd6000830188613ba2565b613e0a6020830187613a5a565b8181036040830152613e1c81866139de565b9050613e2b60608301856139cf565b613e386080830184613ba2565b9695505050505050565b6000604082019050613e576000830185613ba2565b613e646020830184613ba2565b9392505050565b6000602082019050613e806000830184613bb1565b92915050565b6000819050602082019050919050565b600081519050919050565b600081519050919050565b6000602082019050919050565b600082825260208201905092915050565b600082825260208201905092915050565b6000613ee682614040565b9150613ef183614040565b9250827fffffffffffffffffffffffffffffffffffffffffffffffffffffffffffffffff03821115613f2657613f256140f6565b5b828201905092915050565b6000613f3c82614040565b9150613f4783614040565b925082613f5757613f56614125565b5b828204905092915050565b6000613f6d82614040565b9150613f7883614040565b9250817fffffffffffffffffffffffffffffffffffffffffffffffffffffffffffffffff0483118215151615613fb157613fb06140f6565b5b828202905092915050565b6000613fc782614040565b9150613fd283614040565b925082821015613fe557613fe46140f6565b5b828203905092915050565b6000613ffb82614020565b9050919050565b600061400d82614020565b9050919050565b60008115159050919050565b600073ffffffffffffffffffffffffffffffffffffffff82169050919050565b6000819050919050565b600060ff82169050919050565b60006140628261409f565b9050919050565b60006140748261407b565b9050919050565b600061408682614020565b9050919050565b600061409882614040565b9050919050565b60006140aa826140b1565b9050919050565b60006140bc82614020565b9050919050565b60005b838110156140e15780820151818401526020810190506140c6565b838111156140f0576000848401525b50505050565b7f4e487b7100000000000000000000000000000000000000000000000000000000600052601160045260246000fd5b7f4e487b7100000000000000000000000000000000000000000000000000000000600052601260045260246000fd5b6000601f19601f8301169050919050565b61416e81613ff0565b811461417957600080fd5b50565b61418581614002565b811461419057600080fd5b50565b61419c81614014565b81146141a757600080fd5b50565b6141b381614040565b81146141be57600080fd5b5056fea26469706673582212206e267908296f041b14197c3ae749e603746640d506d2934892b5b296e52c19cf64736f6c63430008000033608060405273e9e7cea3dedca5984780bafc599bd69add087d56600160006101000a81548173ffffffffffffffffffffffffffffffffffffffff021916908373ffffffffffffffffffffffffffffffffffffffff16021790555073bb4cdb9cbd36b01bd1cbaebf2de08d9173bc095c600260006101000a81548173ffffffffffffffffffffffffffffffffffffffff021916908373ffffffffffffffffffffffffffffffffffffffff1602179055506ec097ce7bc90715b34b9f1000000000600c55610e10600d55670de0b6b3a7640000600e55348015620000e057600080fd5b5060405162001d4638038062001d468339818101604052810190620001069190620001f7565b600073ffffffffffffffffffffffffffffffffffffffff168173ffffffffffffffffffffffffffffffffffffffff16141562000157577310ed43c718714eb63d5aa57b78b54704e256024e62000159565b805b600360006101000a81548173ffffffffffffffffffffffffffffffffffffffff021916908373ffffffffffffffffffffffffffffffffffffffff160217905550336000806101000a81548173ffffffffffffffffffffffffffffffffffffffff021916908373ffffffffffffffffffffffffffffffffffffffff1602179055505062000271565b600081519050620001f18162000257565b92915050565b6000602082840312156200020a57600080fd5b60006200021a84828501620001e0565b91505092915050565b6000620002308262000237565b9050919050565b600073ffffffffffffffffffffffffffffffffffffffff82169050919050565b620002628162000223565b81146200026e57600080fd5b50565b611ac580620002816000396000f3fe6080604052600436106100dd5760003560e01c8063ce7c2ac21161007f578063efca2eed11610059578063efca2eed14610291578063f0fc6bca146102bc578063ffb2c479146102d3578063ffd49c84146102fc576100dd565b8063ce7c2ac21461021d578063d0e30db01461025c578063e2d2e21914610266576100dd565b80632d48e896116100bb5780632d48e896146101735780633a98ef391461019c5780634fab0ae8146101c7578063997664d7146101f2576100dd565b806311ce023d146100e257806314b6ca961461010d57806328fd319814610136575b600080fd5b3480156100ee57600080fd5b506100f7610327565b60405161010491906117a9565b60405180910390f35b34801561011957600080fd5b50610134600480360381019061012f9190611574565b61032d565b005b34801561014257600080fd5b5061015d6004803603810190610158919061154b565b6105ec565b60405161016a91906117a9565b60405180910390f35b34801561017f57600080fd5b5061019a6004803603810190610195919061162b565b610706565b005b3480156101a857600080fd5b506101b1610770565b6040516101be91906117a9565b60405180910390f35b3480156101d357600080fd5b506101dc610776565b6040516101e991906117a9565b60405180910390f35b3480156101fe57600080fd5b5061020761077c565b60405161021491906117a9565b60405180910390f35b34801561022957600080fd5b50610244600480360381019061023f919061154b565b610782565b604051610253939291906117c4565b60405180910390f35b6102646107ac565b005b34801561027257600080fd5b5061027b610c0e565b60405161028891906117a9565b60405180910390f35b34801561029d57600080fd5b506102a6610c14565b6040516102b391906117a9565b60405180910390f35b3480156102c857600080fd5b506102d1610c1a565b005b3480156102df57600080fd5b506102fa60048036038101906102f591906115d9565b610c25565b005b34801561030857600080fd5b50610311610e05565b60405161031e91906117a9565b60405180910390f35b600c5481565b60008054906101000a900473ffffffffffffffffffffffffffffffffffffffff1673ffffffffffffffffffffffffffffffffffffffff163373ffffffffffffffffffffffffffffffffffffffff161461038557600080fd5b6000600760008473ffffffffffffffffffffffffffffffffffffffff1673ffffffffffffffffffffffffffffffffffffffff1681526020019081526020016000206000015411156103da576103d982610e0b565b5b60008111801561042c57506000600760008473ffffffffffffffffffffffffffffffffffffffff1673ffffffffffffffffffffffffffffffffffffffff16815260200190815260200160002060000154145b1561043f5761043a826110b2565b6104a1565b60008114801561049157506000600760008473ffffffffffffffffffffffffffffffffffffffff1673ffffffffffffffffffffffffffffffffffffffff16815260200190815260200160002060000154115b156104a05761049f82611161565b5b5b61050a816104fc600760008673ffffffffffffffffffffffffffffffffffffffff1673ffffffffffffffffffffffffffffffffffffffff1681526020019081526020016000206000015460085461140090919063ffffffff16565b61141690919063ffffffff16565b60088190555080600760008473ffffffffffffffffffffffffffffffffffffffff1673ffffffffffffffffffffffffffffffffffffffff168152602001908152602001600020600001819055506105a2600760008473ffffffffffffffffffffffffffffffffffffffff1673ffffffffffffffffffffffffffffffffffffffff1681526020019081526020016000206000015461142c565b600760008473ffffffffffffffffffffffffffffffffffffffff1673ffffffffffffffffffffffffffffffffffffffff168152602001908152602001600020600101819055505050565b600080600760008473ffffffffffffffffffffffffffffffffffffffff1673ffffffffffffffffffffffffffffffffffffffff1681526020019081526020016000206000015414156106415760009050610701565b600061068e600760008573ffffffffffffffffffffffffffffffffffffffff1673ffffffffffffffffffffffffffffffffffffffff1681526020019081526020016000206000015461142c565b90506000600760008573ffffffffffffffffffffffffffffffffffffffff1673ffffffffffffffffffffffffffffffffffffffff1681526020019081526020016000206001015490508082116106e957600092505050610701565b6106fc818361140090919063ffffffff16565b925050505b919050565b60008054906101000a900473ffffffffffffffffffffffffffffffffffffffff1673ffffffffffffffffffffffffffffffffffffffff163373ffffffffffffffffffffffffffffffffffffffff161461075e57600080fd5b81600d8190555080600e819055505050565b60085481565b600e5481565b60095481565b60076020528060005260406000206000915090508060000154908060010154908060020154905083565b60008054906101000a900473ffffffffffffffffffffffffffffffffffffffff1673ffffffffffffffffffffffffffffffffffffffff163373ffffffffffffffffffffffffffffffffffffffff161461080457600080fd5b6000600160009054906101000a900473ffffffffffffffffffffffffffffffffffffffff1673ffffffffffffffffffffffffffffffffffffffff166370a08231306040518263ffffffff1660e01b81526004016108619190611719565b60206040518083038186803b15801561087957600080fd5b505afa15801561088d573d6000803e3d6000fd5b505050506040513d601f19601f820116820180604052508101906108b19190611602565b90506000600267ffffffffffffffff8111156108f6577f4e487b7100000000000000000000000000000000000000000000000000000000600052604160045260246000fd5b6040519080825280602002602001820160405280156109245781602001602082028036833780820191505090505b509050600260009054906101000a900473ffffffffffffffffffffffffffffffffffffffff1681600081518110610984577f4e487b7100000000000000000000000000000000000000000000000000000000600052603260045260246000fd5b602002602001019073ffffffffffffffffffffffffffffffffffffffff16908173ffffffffffffffffffffffffffffffffffffffff1681525050600160009054906101000a900473ffffffffffffffffffffffffffffffffffffffff1681600181518110610a1b577f4e487b7100000000000000000000000000000000000000000000000000000000600052603260045260246000fd5b602002602001019073ffffffffffffffffffffffffffffffffffffffff16908173ffffffffffffffffffffffffffffffffffffffff1681525050600360009054906101000a900473ffffffffffffffffffffffffffffffffffffffff1673ffffffffffffffffffffffffffffffffffffffff1663b6f9de953460008430426040518663ffffffff1660e01b8152600401610ab8949392919061175d565b6000604051808303818588803b158015610ad157600080fd5b505af1158015610ae5573d6000803e3d6000fd5b50505050506000610ba983600160009054906101000a900473ffffffffffffffffffffffffffffffffffffffff1673ffffffffffffffffffffffffffffffffffffffff166370a08231306040518263ffffffff1660e01b8152600401610b4b9190611719565b60206040518083038186803b158015610b6357600080fd5b505afa158015610b77573d6000803e3d6000fd5b505050506040513d601f19601f82011682018060405250810190610b9b9190611602565b61140090919063ffffffff16565b9050610bc08160095461141690919063ffffffff16565b600981905550610c03610bf2600854610be484600c5461145e90919063ffffffff16565b61147490919063ffffffff16565b600b5461141690919063ffffffff16565b600b81905550505050565b600b5481565b600a5481565b610c2333610e0b565b565b60008054906101000a900473ffffffffffffffffffffffffffffffffffffffff1673ffffffffffffffffffffffffffffffffffffffff163373ffffffffffffffffffffffffffffffffffffffff1614610c7d57600080fd5b600060048054905090506000811415610c965750610e02565b6000805a905060005b8483108015610cad57508381105b15610dfd5783600f5410610cc4576000600f819055505b610d336004600f5481548110610d03577f4e487b7100000000000000000000000000000000000000000000000000000000600052603260045260246000fd5b9060005260206000200160009054906101000a900473ffffffffffffffffffffffffffffffffffffffff1661148a565b15610da857610da76004600f5481548110610d77577f4e487b7100000000000000000000000000000000000000000000000000000000600052603260045260246000fd5b9060005260206000200160009054906101000a900473ffffffffffffffffffffffffffffffffffffffff16610e0b565b5b610dcd610dbe5a8461140090919063ffffffff16565b8461141690919063ffffffff16565b92505a9150600f6000815480929190610de5906119a3565b91905055508080610df5906119a3565b915050610c9f565b505050505b50565b600d5481565b6000600760008373ffffffffffffffffffffffffffffffffffffffff1673ffffffffffffffffffffffffffffffffffffffff168152602001908152602001600020600001541415610e5b576110af565b6000610e66826105ec565b905060008111156110ad57610e8681600a5461141690919063ffffffff16565b600a81905550600160009054906101000a900473ffffffffffffffffffffffffffffffffffffffff1673ffffffffffffffffffffffffffffffffffffffff1663a9059cbb83836040518363ffffffff1660e01b8152600401610ee9929190611734565b602060405180830381600087803b158015610f0357600080fd5b505af1158015610f17573d6000803e3d6000fd5b505050506040513d601f19601f82011682018060405250810190610f3b91906115b0565b5042600660008473ffffffffffffffffffffffffffffffffffffffff1673ffffffffffffffffffffffffffffffffffffffff16815260200190815260200160002081905550610fd581600760008573ffffffffffffffffffffffffffffffffffffffff1673ffffffffffffffffffffffffffffffffffffffff1681526020019081526020016000206002015461141690919063ffffffff16565b600760008473ffffffffffffffffffffffffffffffffffffffff1673ffffffffffffffffffffffffffffffffffffffff16815260200190815260200160002060020181905550611066600760008473ffffffffffffffffffffffffffffffffffffffff1673ffffffffffffffffffffffffffffffffffffffff1681526020019081526020016000206000015461142c565b600760008473ffffffffffffffffffffffffffffffffffffffff1673ffffffffffffffffffffffffffffffffffffffff168152602001908152602001600020600101819055505b505b50565b600480549050600560008373ffffffffffffffffffffffffffffffffffffffff1673ffffffffffffffffffffffffffffffffffffffff168152602001908152602001600020819055506004819080600181540180825580915050600190039060005260206000200160009091909190916101000a81548173ffffffffffffffffffffffffffffffffffffffff021916908373ffffffffffffffffffffffffffffffffffffffff16021790555050565b600460016004805490506111759190611915565b815481106111ac577f4e487b7100000000000000000000000000000000000000000000000000000000600052603260045260246000fd5b9060005260206000200160009054906101000a900473ffffffffffffffffffffffffffffffffffffffff166004600560008473ffffffffffffffffffffffffffffffffffffffff1673ffffffffffffffffffffffffffffffffffffffff1681526020019081526020016000205481548110611250577f4e487b7100000000000000000000000000000000000000000000000000000000600052603260045260246000fd5b9060005260206000200160006101000a81548173ffffffffffffffffffffffffffffffffffffffff021916908373ffffffffffffffffffffffffffffffffffffffff160217905550600560008273ffffffffffffffffffffffffffffffffffffffff1673ffffffffffffffffffffffffffffffffffffffff1681526020019081526020016000205460056000600460016004805490506112f09190611915565b81548110611327577f4e487b7100000000000000000000000000000000000000000000000000000000600052603260045260246000fd5b9060005260206000200160009054906101000a900473ffffffffffffffffffffffffffffffffffffffff1673ffffffffffffffffffffffffffffffffffffffff1673ffffffffffffffffffffffffffffffffffffffff1681526020019081526020016000208190555060048054806113c8577f4e487b7100000000000000000000000000000000000000000000000000000000600052603160045260246000fd5b6001900381819060005260206000200160006101000a81549073ffffffffffffffffffffffffffffffffffffffff0219169055905550565b6000818361140e9190611915565b905092915050565b600081836114249190611834565b905092915050565b6000611457600c54611449600b548561145e90919063ffffffff16565b61147490919063ffffffff16565b9050919050565b6000818361146c91906118bb565b905092915050565b60008183611482919061188a565b905092915050565b600042600d54600660008573ffffffffffffffffffffffffffffffffffffffff1673ffffffffffffffffffffffffffffffffffffffff168152602001908152602001600020546114da9190611834565b1080156114f05750600e546114ee836105ec565b115b9050919050565b60008135905061150681611a4a565b92915050565b60008151905061151b81611a61565b92915050565b60008135905061153081611a78565b92915050565b60008151905061154581611a78565b92915050565b60006020828403121561155d57600080fd5b600061156b848285016114f7565b91505092915050565b6000806040838503121561158757600080fd5b6000611595858286016114f7565b92505060206115a685828601611521565b9150509250929050565b6000602082840312156115c257600080fd5b60006115d08482850161150c565b91505092915050565b6000602082840312156115eb57600080fd5b60006115f984828501611521565b91505092915050565b60006020828403121561161457600080fd5b600061162284828501611536565b91505092915050565b6000806040838503121561163e57600080fd5b600061164c85828601611521565b925050602061165d85828601611521565b9150509250929050565b6000611673838361167f565b60208301905092915050565b61168881611949565b82525050565b61169781611949565b82525050565b60006116a88261180b565b6116b28185611823565b93506116bd836117fb565b8060005b838110156116ee5781516116d58882611667565b97506116e083611816565b9250506001810190506116c1565b5085935050505092915050565b61170481611991565b82525050565b61171381611987565b82525050565b600060208201905061172e600083018461168e565b92915050565b6000604082019050611749600083018561168e565b611756602083018461170a565b9392505050565b600060808201905061177260008301876116fb565b8181036020830152611784818661169d565b9050611793604083018561168e565b6117a0606083018461170a565b95945050505050565b60006020820190506117be600083018461170a565b92915050565b60006060820190506117d9600083018661170a565b6117e6602083018561170a565b6117f3604083018461170a565b949350505050565b6000819050602082019050919050565b600081519050919050565b6000602082019050919050565b600082825260208201905092915050565b600061183f82611987565b915061184a83611987565b9250827fffffffffffffffffffffffffffffffffffffffffffffffffffffffffffffffff0382111561187f5761187e6119ec565b5b828201905092915050565b600061189582611987565b91506118a083611987565b9250826118b0576118af611a1b565b5b828204905092915050565b60006118c682611987565b91506118d183611987565b9250817fffffffffffffffffffffffffffffffffffffffffffffffffffffffffffffffff048311821515161561190a576119096119ec565b5b828202905092915050565b600061192082611987565b915061192b83611987565b92508282101561193e5761193d6119ec565b5b828203905092915050565b600061195482611967565b9050919050565b60008115159050919050565b600073ffffffffffffffffffffffffffffffffffffffff82169050919050565b6000819050919050565b600061199c82611987565b9050919050565b60006119ae82611987565b91507fffffffffffffffffffffffffffffffffffffffffffffffffffffffffffffffff8214156119e1576119e06119ec565b5b600182019050919050565b7f4e487b7100000000000000000000000000000000000000000000000000000000600052601160045260246000fd5b7f4e487b7100000000000000000000000000000000000000000000000000000000600052601260045260246000fd5b611a5381611949565b8114611a5e57600080fd5b50565b611a6a8161195b565b8114611a7557600080fd5b50565b611a8181611987565b8114611a8c57600080fd5b5056fea2646970667358221220865a6e22ffef83e085e7da62a0499f833fb803355db12615418009d308d625a064736f6c63430008000033",
  "immutableReferences": {},
  "source": "/*\n   https://bscscan.com/address/0xC001BBe2B87079294C63EcE98BdD0a88D761434e\n   This contract has the busd rewards for holders\n*/\n\n/**\n *Submitted for verification at BscScan.com on 2021-09-16\n */\n\n/**\n *Submitted for verification at BscScan.com on 2021-09-16\n */\n//SPDX-License-Identifier: MIT\npragma solidity ^0.8.0;\n\n/**\n * SAFEMATH LIBRARY\n */\nlibrary SafeMath {\n    function tryAdd(uint256 a, uint256 b)\n        internal\n        pure\n        returns (bool, uint256)\n    {\n        unchecked {\n            uint256 c = a + b;\n            if (c < a) return (false, 0);\n            return (true, c);\n        }\n    }\n\n    function trySub(uint256 a, uint256 b)\n        internal\n        pure\n        returns (bool, uint256)\n    {\n        unchecked {\n            if (b > a) return (false, 0);\n            return (true, a - b);\n        }\n    }\n\n    function tryMul(uint256 a, uint256 b)\n        internal\n        pure\n        returns (bool, uint256)\n    {\n        unchecked {\n            // Gas optimization: this is cheaper than requiring 'a' not being zero, but the\n            // benefit is lost if 'b' is also tested.\n            // See: https://github.com/OpenZeppelin/openzeppelin-contracts/pull/522\n            if (a == 0) return (true, 0);\n            uint256 c = a * b;\n            if (c / a != b) return (false, 0);\n            return (true, c);\n        }\n    }\n\n    function tryDiv(uint256 a, uint256 b)\n        internal\n        pure\n        returns (bool, uint256)\n    {\n        unchecked {\n            if (b == 0) return (false, 0);\n            return (true, a / b);\n        }\n    }\n\n    function tryMod(uint256 a, uint256 b)\n        internal\n        pure\n        returns (bool, uint256)\n    {\n        unchecked {\n            if (b == 0) return (false, 0);\n            return (true, a % b);\n        }\n    }\n\n    function add(uint256 a, uint256 b) internal pure returns (uint256) {\n        return a + b;\n    }\n\n    function sub(uint256 a, uint256 b) internal pure returns (uint256) {\n        return a - b;\n    }\n\n    function mul(uint256 a, uint256 b) internal pure returns (uint256) {\n        return a * b;\n    }\n\n    function div(uint256 a, uint256 b) internal pure returns (uint256) {\n        return a / b;\n    }\n\n    function mod(uint256 a, uint256 b) internal pure returns (uint256) {\n        return a % b;\n    }\n\n    function sub(\n        uint256 a,\n        uint256 b,\n        string memory errorMessage\n    ) internal pure returns (uint256) {\n        unchecked {\n            require(b <= a, errorMessage);\n            return a - b;\n        }\n    }\n\n    function div(\n        uint256 a,\n        uint256 b,\n        string memory errorMessage\n    ) internal pure returns (uint256) {\n        unchecked {\n            require(b > 0, errorMessage);\n            return a / b;\n        }\n    }\n\n    function mod(\n        uint256 a,\n        uint256 b,\n        string memory errorMessage\n    ) internal pure returns (uint256) {\n        unchecked {\n            require(b > 0, errorMessage);\n            return a % b;\n        }\n    }\n}\n\ninterface IBEP20 {\n    function totalSupply() external view returns (uint256);\n\n    function decimals() external view returns (uint8);\n\n    function symbol() external view returns (string memory);\n\n    function name() external view returns (string memory);\n\n    function getOwner() external view returns (address);\n\n    function balanceOf(address account) external view returns (uint256);\n\n    function transfer(address recipient, uint256 amount)\n        external\n        returns (bool);\n\n    function allowance(address _owner, address spender)\n        external\n        view\n        returns (uint256);\n\n    function approve(address spender, uint256 amount) external returns (bool);\n\n    function transferFrom(\n        address sender,\n        address recipient,\n        uint256 amount\n    ) external returns (bool);\n\n    event Transfer(address indexed from, address indexed to, uint256 value);\n    event Approval(\n        address indexed owner,\n        address indexed spender,\n        uint256 value\n    );\n}\n\nabstract contract Auth {\n    address internal owner;\n    mapping(address => bool) internal authorizations;\n\n    constructor(address _owner) {\n        owner = _owner;\n        authorizations[_owner] = true;\n    }\n\n    /**\n     * Function modifier to require caller to be contract owner\n     */\n    modifier onlyOwner() {\n        require(isOwner(msg.sender), \"!OWNER\");\n        _;\n    }\n\n    /**\n     * Function modifier to require caller to be authorized\n     */\n    modifier authorized() {\n        require(isAuthorized(msg.sender), \"!AUTHORIZED\");\n        _;\n    }\n\n    /**\n     * Authorize address. Owner only\n     */\n    function authorize(address adr) public onlyOwner {\n        authorizations[adr] = true;\n    }\n\n    /**\n     * Remove address' authorization. Owner only\n     */\n    function unauthorize(address adr) public onlyOwner {\n        authorizations[adr] = false;\n    }\n\n    /**\n     * Check if address is owner\n     */\n    function isOwner(address account) public view returns (bool) {\n        return account == owner;\n    }\n\n    /**\n     * Return address' authorization status\n     */\n    function isAuthorized(address adr) public view returns (bool) {\n        return authorizations[adr];\n    }\n\n    /**\n     * Transfer ownership to new address. Caller must be owner. Leaves old owner authorized\n     */\n    function transferOwnership(address payable adr) public onlyOwner {\n        owner = adr;\n        authorizations[adr] = true;\n        emit OwnershipTransferred(adr);\n    }\n\n    event OwnershipTransferred(address owner);\n}\n\ninterface IDEXFactory {\n    function createPair(address tokenA, address tokenB)\n        external\n        returns (address pair);\n}\n\ninterface IDEXRouter {\n    function factory() external pure returns (address);\n\n    function WETH() external pure returns (address);\n\n    function addLiquidity(\n        address tokenA,\n        address tokenB,\n        uint256 amountADesired,\n        uint256 amountBDesired,\n        uint256 amountAMin,\n        uint256 amountBMin,\n        address to,\n        uint256 deadline\n    )\n        external\n        returns (\n            uint256 amountA,\n            uint256 amountB,\n            uint256 liquidity\n        );\n\n    function addLiquidityETH(\n        address token,\n        uint256 amountTokenDesired,\n        uint256 amountTokenMin,\n        uint256 amountETHMin,\n        address to,\n        uint256 deadline\n    )\n        external\n        payable\n        returns (\n            uint256 amountToken,\n            uint256 amountETH,\n            uint256 liquidity\n        );\n\n    function swapExactTokensForTokensSupportingFeeOnTransferTokens(\n        uint256 amountIn,\n        uint256 amountOutMin,\n        address[] calldata path,\n        address to,\n        uint256 deadline\n    ) external;\n\n    function swapExactETHForTokensSupportingFeeOnTransferTokens(\n        uint256 amountOutMin,\n        address[] calldata path,\n        address to,\n        uint256 deadline\n    ) external payable;\n\n    function swapExactTokensForETHSupportingFeeOnTransferTokens(\n        uint256 amountIn,\n        uint256 amountOutMin,\n        address[] calldata path,\n        address to,\n        uint256 deadline\n    ) external;\n}\n\ninterface IDividendDistributor {\n    function setDistributionCriteria(\n        uint256 _minPeriod,\n        uint256 _minDistribution\n    ) external;\n\n    function setShare(address shareholder, uint256 amount) external;\n\n    function deposit() external payable;\n\n    function process(uint256 gas) external;\n}\n\ncontract DividendDistributor is IDividendDistributor {\n    using SafeMath for uint256;\n\n    address _token;\n\n    struct Share {\n        uint256 amount;\n        uint256 totalExcluded;\n        uint256 totalRealised;\n    }\n\n    IBEP20 BUSD = IBEP20(0xe9e7CEA3DedcA5984780Bafc599bD69ADd087D56);\n    address WBNB = 0xbb4CdB9CBd36B01bD1cBaEBF2De08d9173bc095c;\n    IDEXRouter router;\n\n    address[] shareholders;\n    mapping(address => uint256) shareholderIndexes;\n    mapping(address => uint256) shareholderClaims;\n\n    mapping(address => Share) public shares;\n\n    uint256 public totalShares;\n    uint256 public totalDividends;\n    uint256 public totalDistributed;\n    uint256 public dividendsPerShare;\n    uint256 public dividendsPerShareAccuracyFactor = 10**36;\n\n    uint256 public minPeriod = 1 hours;\n    uint256 public minDistribution = 1 * (10**18);\n\n    uint256 currentIndex;\n\n    bool initialized;\n    modifier initialization() {\n        require(!initialized);\n        _;\n        initialized = true;\n    }\n\n    modifier onlyToken() {\n        require(msg.sender == _token);\n        _;\n    }\n\n    constructor(address _router) {\n        router = _router != address(0)\n            ? IDEXRouter(_router)\n            : IDEXRouter(0x10ED43C718714eb63d5aA57B78B54704E256024E);\n        _token = msg.sender;\n    }\n\n    function setDistributionCriteria(\n        uint256 _minPeriod,\n        uint256 _minDistribution\n    ) external override onlyToken {\n        minPeriod = _minPeriod;\n        minDistribution = _minDistribution;\n    }\n\n    function setShare(address shareholder, uint256 amount)\n        external\n        override\n        onlyToken\n    {\n        if (shares[shareholder].amount > 0) {\n            distributeDividend(shareholder);\n        }\n\n        if (amount > 0 && shares[shareholder].amount == 0) {\n            addShareholder(shareholder);\n        } else if (amount == 0 && shares[shareholder].amount > 0) {\n            removeShareholder(shareholder);\n        }\n\n        totalShares = totalShares.sub(shares[shareholder].amount).add(amount);\n        shares[shareholder].amount = amount;\n        shares[shareholder].totalExcluded = getCumulativeDividends(\n            shares[shareholder].amount\n        );\n    }\n\n    function deposit() external payable override onlyToken {\n        uint256 balanceBefore = BUSD.balanceOf(address(this));\n\n        address[] memory path = new address[](2);\n        path[0] = WBNB;\n        path[1] = address(BUSD);\n\n        router.swapExactETHForTokensSupportingFeeOnTransferTokens{\n            value: msg.value\n        }(0, path, address(this), block.timestamp);\n\n        uint256 amount = BUSD.balanceOf(address(this)).sub(balanceBefore);\n\n        totalDividends = totalDividends.add(amount);\n        dividendsPerShare = dividendsPerShare.add(\n            dividendsPerShareAccuracyFactor.mul(amount).div(totalShares)\n        );\n    }\n\n    function process(uint256 gas) external override onlyToken {\n        uint256 shareholderCount = shareholders.length;\n\n        if (shareholderCount == 0) {\n            return;\n        }\n\n        uint256 gasUsed = 0;\n        uint256 gasLeft = gasleft();\n\n        uint256 iterations = 0;\n\n        while (gasUsed < gas && iterations < shareholderCount) {\n            if (currentIndex >= shareholderCount) {\n                currentIndex = 0;\n            }\n\n            if (shouldDistribute(shareholders[currentIndex])) {\n                distributeDividend(shareholders[currentIndex]);\n            }\n\n            gasUsed = gasUsed.add(gasLeft.sub(gasleft()));\n            gasLeft = gasleft();\n            currentIndex++;\n            iterations++;\n        }\n    }\n\n    function shouldDistribute(address shareholder)\n        internal\n        view\n        returns (bool)\n    {\n        return\n            shareholderClaims[shareholder] + minPeriod < block.timestamp &&\n            getUnpaidEarnings(shareholder) > minDistribution;\n    }\n\n    function distributeDividend(address shareholder) internal {\n        if (shares[shareholder].amount == 0) {\n            return;\n        }\n\n        uint256 amount = getUnpaidEarnings(shareholder);\n        if (amount > 0) {\n            totalDistributed = totalDistributed.add(amount);\n            BUSD.transfer(shareholder, amount);\n            shareholderClaims[shareholder] = block.timestamp;\n            shares[shareholder].totalRealised = shares[shareholder]\n                .totalRealised\n                .add(amount);\n            shares[shareholder].totalExcluded = getCumulativeDividends(\n                shares[shareholder].amount\n            );\n        }\n    }\n\n    function claimDividend() external {\n        distributeDividend(msg.sender);\n    }\n\n    function getUnpaidEarnings(address shareholder)\n        public\n        view\n        returns (uint256)\n    {\n        if (shares[shareholder].amount == 0) {\n            return 0;\n        }\n\n        uint256 shareholderTotalDividends = getCumulativeDividends(\n            shares[shareholder].amount\n        );\n        uint256 shareholderTotalExcluded = shares[shareholder].totalExcluded;\n\n        if (shareholderTotalDividends <= shareholderTotalExcluded) {\n            return 0;\n        }\n\n        return shareholderTotalDividends.sub(shareholderTotalExcluded);\n    }\n\n    function getCumulativeDividends(uint256 share)\n        internal\n        view\n        returns (uint256)\n    {\n        return\n            share.mul(dividendsPerShare).div(dividendsPerShareAccuracyFactor);\n    }\n\n    function addShareholder(address shareholder) internal {\n        shareholderIndexes[shareholder] = shareholders.length;\n        shareholders.push(shareholder);\n    }\n\n    function removeShareholder(address shareholder) internal {\n        shareholders[shareholderIndexes[shareholder]] = shareholders[\n            shareholders.length - 1\n        ];\n        shareholderIndexes[\n            shareholders[shareholders.length - 1]\n        ] = shareholderIndexes[shareholder];\n        shareholders.pop();\n    }\n}\n\ncontract EverGrow is IBEP20, Auth {\n    using SafeMath for uint256;\n\n    uint256 public constant MASK = type(uint128).max;\n    address BUSD = 0xe9e7CEA3DedcA5984780Bafc599bD69ADd087D56;\n    address public WBNB = 0xbb4CdB9CBd36B01bD1cBaEBF2De08d9173bc095c;\n    address DEAD = 0x000000000000000000000000000000000000dEaD;\n    address ZERO = 0x0000000000000000000000000000000000000000;\n    address DEAD_NON_CHECKSUM = 0x000000000000000000000000000000000000dEaD;\n\n    string constant _name = \"EverGrow Coin\";\n    string constant _symbol = \"EGC\";\n    uint8 constant _decimals = 9;\n\n    uint256 _totalSupply = 1_000_000_000_000_000 * (10**_decimals);\n    uint256 public _maxTxAmount = _totalSupply.div(400); // 0.25%\n\n    mapping(address => uint256) _balances;\n    mapping(address => mapping(address => uint256)) _allowances;\n\n    mapping(address => bool) isFeeExempt;\n    mapping(address => bool) isTxLimitExempt;\n    mapping(address => bool) isDividendExempt;\n\n    uint256 liquidityFee = 200;\n    uint256 buybackFee = 300;\n    uint256 reflectionFee = 800;\n    uint256 marketingFee = 100;\n    uint256 totalFee = 1400;\n    uint256 feeDenominator = 10000;\n\n    address public autoLiquidityReceiver;\n    address public marketingFeeReceiver;\n\n    uint256 targetLiquidity = 25;\n    uint256 targetLiquidityDenominator = 100;\n\n    IDEXRouter public router;\n    address public pair;\n\n    uint256 public launchedAt;\n    uint256 public launchedAtTimestamp;\n\n    uint256 buybackMultiplierNumerator = 200;\n    uint256 buybackMultiplierDenominator = 100;\n    uint256 buybackMultiplierTriggeredAt;\n    uint256 buybackMultiplierLength = 30 minutes;\n\n    bool public autoBuybackEnabled = false;\n    mapping(address => bool) buyBacker;\n    uint256 autoBuybackCap;\n    uint256 autoBuybackAccumulator;\n    uint256 autoBuybackAmount;\n    uint256 autoBuybackBlockPeriod;\n    uint256 autoBuybackBlockLast;\n\n    DividendDistributor distributor;\n    address public distributorAddress;\n\n    uint256 distributorGas = 500000;\n\n    bool public swapEnabled = true;\n    uint256 public swapThreshold = _totalSupply / 2000; // 0.005%\n    bool inSwap;\n    modifier swapping() {\n        inSwap = true;\n        _;\n        inSwap = false;\n    }\n\n    constructor(address _dexRouter) Auth(msg.sender) {\n        router = IDEXRouter(_dexRouter);\n        pair = IDEXFactory(router.factory()).createPair(WBNB, address(this));\n        _allowances[address(this)][address(router)] = _totalSupply;\n        WBNB = router.WETH();\n        distributor = new DividendDistributor(_dexRouter);\n        distributorAddress = address(distributor);\n\n        isFeeExempt[msg.sender] = true;\n        isTxLimitExempt[msg.sender] = true;\n        isDividendExempt[pair] = true;\n        isDividendExempt[address(this)] = true;\n        isDividendExempt[DEAD] = true;\n        buyBacker[msg.sender] = true;\n\n        autoLiquidityReceiver = msg.sender;\n        marketingFeeReceiver = msg.sender;\n\n        approve(_dexRouter, _totalSupply);\n        approve(address(pair), _totalSupply);\n        _balances[msg.sender] = _totalSupply;\n        emit Transfer(address(0), msg.sender, _totalSupply);\n    }\n\n    receive() external payable {}\n\n    function totalSupply() external view override returns (uint256) {\n        return _totalSupply;\n    }\n\n    function decimals() external pure override returns (uint8) {\n        return _decimals;\n    }\n\n    function symbol() external pure override returns (string memory) {\n        return _symbol;\n    }\n\n    function name() external pure override returns (string memory) {\n        return _name;\n    }\n\n    function getOwner() external view override returns (address) {\n        return owner;\n    }\n\n    modifier onlyBuybacker() {\n        require(buyBacker[msg.sender] == true, \"\");\n        _;\n    }\n\n    function balanceOf(address account) public view override returns (uint256) {\n        return _balances[account];\n    }\n\n    function allowance(address holder, address spender)\n        external\n        view\n        override\n        returns (uint256)\n    {\n        return _allowances[holder][spender];\n    }\n\n    function approve(address spender, uint256 amount)\n        public\n        override\n        returns (bool)\n    {\n        _allowances[msg.sender][spender] = amount;\n        emit Approval(msg.sender, spender, amount);\n        return true;\n    }\n\n    function approveMax(address spender) external returns (bool) {\n        return approve(spender, _totalSupply);\n    }\n\n    function transfer(address recipient, uint256 amount)\n        external\n        override\n        returns (bool)\n    {\n        return _transferFrom(msg.sender, recipient, amount);\n    }\n\n    function transferFrom(\n        address sender,\n        address recipient,\n        uint256 amount\n    ) external override returns (bool) {\n        if (_allowances[sender][msg.sender] != _totalSupply) {\n            _allowances[sender][msg.sender] = _allowances[sender][msg.sender]\n                .sub(amount, \"Insufficient Allowance\");\n        }\n\n        return _transferFrom(sender, recipient, amount);\n    }\n\n    function _transferFrom(\n        address sender,\n        address recipient,\n        uint256 amount\n    ) internal returns (bool) {\n        if (inSwap) {\n            return _basicTransfer(sender, recipient, amount);\n        }\n\n        checkTxLimit(sender, amount);\n        //\n        if (shouldSwapBack()) {\n            swapBack();\n        }\n        if (shouldAutoBuyback()) {\n            triggerAutoBuyback();\n        }\n\n        //        if(!launched() && recipient == pair){ require(_balances[sender] > 0); launch(); }\n\n        _balances[sender] = _balances[sender].sub(\n            amount,\n            \"Insufficient Balance\"\n        );\n\n        uint256 amountReceived = shouldTakeFee(sender)\n            ? takeFee(sender, recipient, amount)\n            : amount;\n\n        _balances[recipient] = _balances[recipient].add(amountReceived);\n\n        if (!isDividendExempt[sender]) {\n            try distributor.setShare(sender, _balances[sender]) {} catch {}\n        }\n        if (!isDividendExempt[recipient]) {\n            try\n                distributor.setShare(recipient, _balances[recipient])\n            {} catch {}\n        }\n\n        try distributor.process(distributorGas) {} catch {}\n\n        emit Transfer(sender, recipient, amountReceived);\n        return true;\n    }\n\n    function _basicTransfer(\n        address sender,\n        address recipient,\n        uint256 amount\n    ) internal returns (bool) {\n        _balances[sender] = _balances[sender].sub(\n            amount,\n            \"Insufficient Balance\"\n        );\n        _balances[recipient] = _balances[recipient].add(amount);\n        //        emit Transfer(sender, recipient, amount);\n        return true;\n    }\n\n    function checkTxLimit(address sender, uint256 amount) internal view {\n        require(\n            amount <= _maxTxAmount || isTxLimitExempt[sender],\n            \"TX Limit Exceeded\"\n        );\n    }\n\n    function shouldTakeFee(address sender) internal view returns (bool) {\n        return !isFeeExempt[sender];\n    }\n\n    function getTotalFee(bool selling) public view returns (uint256) {\n        if (launchedAt + 1 >= block.number) {\n            return feeDenominator.sub(1);\n        }\n        if (selling) {\n            return getMultipliedFee();\n        }\n        return totalFee;\n    }\n\n    function getMultipliedFee() public view returns (uint256) {\n        if (launchedAtTimestamp + 1 days > block.timestamp) {\n            return totalFee.mul(18000).div(feeDenominator);\n        } else if (\n            buybackMultiplierTriggeredAt.add(buybackMultiplierLength) >\n            block.timestamp\n        ) {\n            uint256 remainingTime = buybackMultiplierTriggeredAt\n                .add(buybackMultiplierLength)\n                .sub(block.timestamp);\n            uint256 feeIncrease = totalFee\n                .mul(buybackMultiplierNumerator)\n                .div(buybackMultiplierDenominator)\n                .sub(totalFee);\n            return\n                totalFee.add(\n                    feeIncrease.mul(remainingTime).div(buybackMultiplierLength)\n                );\n        }\n        return totalFee;\n    }\n\n    function takeFee(\n        address sender,\n        address receiver,\n        uint256 amount\n    ) internal returns (uint256) {\n        uint256 feeAmount = amount.mul(getTotalFee(receiver == pair)).div(\n            feeDenominator\n        );\n\n        _balances[address(this)] = _balances[address(this)].add(feeAmount);\n        emit Transfer(sender, address(this), feeAmount);\n\n        return amount.sub(feeAmount);\n    }\n\n    function shouldSwapBack() internal view returns (bool) {\n        return\n            msg.sender != pair &&\n            !inSwap &&\n            swapEnabled &&\n            _balances[address(this)] >= swapThreshold;\n    }\n\n    function swapBack() internal swapping {\n        uint256 dynamicLiquidityFee = isOverLiquified(\n            targetLiquidity,\n            targetLiquidityDenominator\n        )\n            ? 0\n            : liquidityFee;\n        uint256 amountToLiquify = swapThreshold\n            .mul(dynamicLiquidityFee)\n            .div(totalFee)\n            .div(2);\n        uint256 amountToSwap = swapThreshold.sub(amountToLiquify);\n\n        address[] memory path = new address[](2);\n        path[0] = address(this);\n        path[1] = WBNB;\n        uint256 balanceBefore = address(this).balance;\n\n        router.swapExactTokensForETHSupportingFeeOnTransferTokens(\n            amountToSwap,\n            0,\n            path,\n            address(this),\n            block.timestamp\n        );\n\n        uint256 amountBNB = address(this).balance.sub(balanceBefore);\n\n        uint256 totalBNBFee = totalFee.sub(dynamicLiquidityFee.div(2));\n\n        uint256 amountBNBLiquidity = amountBNB\n            .mul(dynamicLiquidityFee)\n            .div(totalBNBFee)\n            .div(2);\n        uint256 amountBNBReflection = amountBNB.mul(reflectionFee).div(\n            totalBNBFee\n        );\n        uint256 amountBNBMarketing = amountBNB.mul(marketingFee).div(\n            totalBNBFee\n        );\n\n        try distributor.deposit{value: amountBNBReflection}() {} catch {}\n        payable(marketingFeeReceiver).transfer(amountBNBMarketing);\n\n        if (amountToLiquify > 0) {\n            router.addLiquidityETH{value: amountBNBLiquidity}(\n                address(this),\n                amountToLiquify,\n                0,\n                0,\n                autoLiquidityReceiver,\n                block.timestamp\n            );\n            emit AutoLiquify(amountBNBLiquidity, amountToLiquify);\n        }\n    }\n\n    function shouldAutoBuyback() internal view returns (bool) {\n        return\n            msg.sender != pair &&\n            !inSwap &&\n            autoBuybackEnabled &&\n            autoBuybackBlockLast + autoBuybackBlockPeriod <= block.number && // After N blocks from last buyback\n            address(this).balance >= autoBuybackAmount;\n    }\n\n    function triggerZeusBuyback(uint256 amount, bool triggerBuybackMultiplier)\n        external\n        authorized\n    {\n        buyTokens(amount, DEAD);\n        if (triggerBuybackMultiplier) {\n            buybackMultiplierTriggeredAt = block.timestamp;\n            emit BuybackMultiplierActive(buybackMultiplierLength);\n        }\n    }\n\n    function clearBuybackMultiplier() external authorized {\n        buybackMultiplierTriggeredAt = 0;\n    }\n\n    function triggerAutoBuyback() internal {\n        buyTokens(autoBuybackAmount, DEAD);\n        autoBuybackBlockLast = block.number;\n        autoBuybackAccumulator = autoBuybackAccumulator.add(autoBuybackAmount);\n        if (autoBuybackAccumulator > autoBuybackCap) {\n            autoBuybackEnabled = false;\n        }\n    }\n\n    function buyTokens(uint256 amount, address to) internal swapping {\n        address[] memory path = new address[](2);\n        path[0] = WBNB;\n        path[1] = address(this);\n\n        router.swapExactETHForTokensSupportingFeeOnTransferTokens{\n            value: amount\n        }(0, path, to, block.timestamp);\n    }\n\n    function setAutoBuybackSettings(\n        bool _enabled,\n        uint256 _cap,\n        uint256 _amount,\n        uint256 _period\n    ) external authorized {\n        autoBuybackEnabled = _enabled;\n        autoBuybackCap = _cap;\n        autoBuybackAccumulator = 0;\n        autoBuybackAmount = _amount;\n        autoBuybackBlockPeriod = _period;\n        autoBuybackBlockLast = block.number;\n    }\n\n    function setBuybackMultiplierSettings(\n        uint256 numerator,\n        uint256 denominator,\n        uint256 length\n    ) external authorized {\n        require(numerator / denominator <= 2 && numerator > denominator);\n        buybackMultiplierNumerator = numerator;\n        buybackMultiplierDenominator = denominator;\n        buybackMultiplierLength = length;\n    }\n\n    function launched() internal view returns (bool) {\n        return launchedAt != 0;\n    }\n\n    function launch() public authorized {\n        require(launchedAt == 0, \"Already launched boi\");\n        launchedAt = block.number;\n        launchedAtTimestamp = block.timestamp;\n    }\n\n    function setTxLimit(uint256 amount) external authorized {\n        require(amount >= _totalSupply / 1000);\n        _maxTxAmount = amount;\n    }\n\n    function setIsDividendExempt(address holder, bool exempt)\n        external\n        authorized\n    {\n        require(holder != address(this) && holder != pair);\n        isDividendExempt[holder] = exempt;\n        if (exempt) {\n            distributor.setShare(holder, 0);\n        } else {\n            distributor.setShare(holder, _balances[holder]);\n        }\n    }\n\n    function setIsFeeExempt(address holder, bool exempt) external authorized {\n        isFeeExempt[holder] = exempt;\n    }\n\n    function setIsTxLimitExempt(address holder, bool exempt)\n        external\n        authorized\n    {\n        isTxLimitExempt[holder] = exempt;\n    }\n\n    function setFees(\n        uint256 _liquidityFee,\n        uint256 _buybackFee,\n        uint256 _reflectionFee,\n        uint256 _marketingFee,\n        uint256 _feeDenominator\n    ) external authorized {\n        liquidityFee = _liquidityFee;\n        buybackFee = _buybackFee;\n        reflectionFee = _reflectionFee;\n        marketingFee = _marketingFee;\n        totalFee = _liquidityFee.add(_buybackFee).add(_reflectionFee).add(\n            _marketingFee\n        );\n        feeDenominator = _feeDenominator;\n        require(totalFee < feeDenominator / 4);\n    }\n\n    function setFeeReceivers(\n        address _autoLiquidityReceiver,\n        address _marketingFeeReceiver\n    ) external authorized {\n        autoLiquidityReceiver = _autoLiquidityReceiver;\n        marketingFeeReceiver = _marketingFeeReceiver;\n    }\n\n    function setSwapBackSettings(bool _enabled, uint256 _amount)\n        external\n        authorized\n    {\n        swapEnabled = _enabled;\n        swapThreshold = _amount;\n    }\n\n    function setTargetLiquidity(uint256 _target, uint256 _denominator)\n        external\n        authorized\n    {\n        targetLiquidity = _target;\n        targetLiquidityDenominator = _denominator;\n    }\n\n    function setDistributionCriteria(\n        uint256 _minPeriod,\n        uint256 _minDistribution\n    ) external authorized {\n        distributor.setDistributionCriteria(_minPeriod, _minDistribution);\n    }\n\n    function setDistributorSettings(uint256 gas) external authorized {\n        require(gas < 750000);\n        distributorGas = gas;\n    }\n\n    function getCirculatingSupply() public view returns (uint256) {\n        return _totalSupply.sub(balanceOf(DEAD)).sub(balanceOf(ZERO));\n    }\n\n    function getLiquidityBacking(uint256 accuracy)\n        public\n        view\n        returns (uint256)\n    {\n        return accuracy.mul(balanceOf(pair).mul(2)).div(getCirculatingSupply());\n    }\n\n    function isOverLiquified(uint256 target, uint256 accuracy)\n        public\n        view\n        returns (bool)\n    {\n        return getLiquidityBacking(accuracy) > target;\n    }\n\n    event AutoLiquify(uint256 amountBNB, uint256 amountBOG);\n    event BuybackMultiplierActive(uint256 duration);\n}\n",
  "sourcePath": "C:\\Users\\Dapp Master\\Desktop\\porcan\\contracts\\EverGrow.sol",
  "compiler": {
    "name": "solc",
    "version": "0.8.0+commit.c7dfd78e.Emscripten.clang"
  },
  "schemaVersion": "3.4.4",
  "updatedAt": "2022-01-08T05:56:41.721Z",
  "devdoc": {
    "kind": "dev",
    "methods": {},
    "version": 1
  },
  "userdoc": {
    "kind": "user",
    "methods": {
      "authorize(address)": {
        "notice": "Authorize address. Owner only"
      },
      "isAuthorized(address)": {
        "notice": "Return address' authorization status"
      },
      "isOwner(address)": {
        "notice": "Check if address is owner"
      },
      "transferOwnership(address)": {
        "notice": "Transfer ownership to new address. Caller must be owner. Leaves old owner authorized"
      },
      "unauthorize(address)": {
        "notice": "Remove address' authorization. Owner only"
      }
    },
    "version": 1
  }
}